{
  "contractName": "Token1",
  "abi": [
    {
      "inputs": [],
      "stateMutability": "nonpayable",
      "type": "constructor"
    },
    {
      "anonymous": false,
      "inputs": [
        {
          "indexed": true,
          "internalType": "address",
          "name": "tokenOwner",
          "type": "address"
        },
        {
          "indexed": true,
          "internalType": "address",
          "name": "spender",
          "type": "address"
        },
        {
          "indexed": false,
          "internalType": "uint256",
          "name": "tokens",
          "type": "uint256"
        }
      ],
      "name": "Approval",
      "type": "event"
    },
    {
      "anonymous": false,
      "inputs": [
        {
          "indexed": true,
          "internalType": "address",
          "name": "_from",
          "type": "address"
        },
        {
          "indexed": true,
          "internalType": "address",
          "name": "_to",
          "type": "address"
        }
      ],
      "name": "OwnershipTransferred",
      "type": "event"
    },
    {
      "anonymous": false,
      "inputs": [
        {
          "indexed": true,
          "internalType": "address",
          "name": "from",
          "type": "address"
        },
        {
          "indexed": true,
          "internalType": "address",
          "name": "to",
          "type": "address"
        },
        {
          "indexed": false,
          "internalType": "uint256",
          "name": "tokens",
          "type": "uint256"
        }
      ],
      "name": "Transfer",
      "type": "event"
    },
    {
      "inputs": [],
      "name": "_totalSupply",
      "outputs": [
        {
          "internalType": "uint256",
          "name": "",
          "type": "uint256"
        }
      ],
      "stateMutability": "view",
      "type": "function"
    },
    {
      "inputs": [],
      "name": "acceptOwnership",
      "outputs": [],
      "stateMutability": "nonpayable",
      "type": "function"
    },
    {
      "inputs": [
        {
          "internalType": "address",
          "name": "tokenOwner",
          "type": "address"
        },
        {
          "internalType": "address",
          "name": "spender",
          "type": "address"
        }
      ],
      "name": "allowance",
      "outputs": [
        {
          "internalType": "uint256",
          "name": "remaining",
          "type": "uint256"
        }
      ],
      "stateMutability": "view",
      "type": "function"
    },
    {
      "inputs": [
        {
          "internalType": "address",
          "name": "spender",
          "type": "address"
        },
        {
          "internalType": "uint256",
          "name": "tokens",
          "type": "uint256"
        }
      ],
      "name": "approve",
      "outputs": [
        {
          "internalType": "bool",
          "name": "success",
          "type": "bool"
        }
      ],
      "stateMutability": "nonpayable",
      "type": "function"
    },
    {
      "inputs": [
        {
          "internalType": "address",
          "name": "spender",
          "type": "address"
        },
        {
          "internalType": "uint256",
          "name": "tokens",
          "type": "uint256"
        },
        {
          "internalType": "bytes",
          "name": "data",
          "type": "bytes"
        }
      ],
      "name": "approveAndCall",
      "outputs": [
        {
          "internalType": "bool",
          "name": "success",
          "type": "bool"
        }
      ],
      "stateMutability": "nonpayable",
      "type": "function"
    },
    {
      "inputs": [
        {
          "internalType": "address",
          "name": "tokenOwner",
          "type": "address"
        }
      ],
      "name": "balanceOf",
      "outputs": [
        {
          "internalType": "uint256",
          "name": "balance",
          "type": "uint256"
        }
      ],
      "stateMutability": "view",
      "type": "function"
    },
    {
      "inputs": [],
      "name": "creator",
      "outputs": [
        {
          "internalType": "contract MainToken",
          "name": "",
          "type": "address"
        }
      ],
      "stateMutability": "view",
      "type": "function"
    },
    {
      "inputs": [],
      "name": "decimals",
      "outputs": [
        {
          "internalType": "uint8",
          "name": "",
          "type": "uint8"
        }
      ],
      "stateMutability": "view",
      "type": "function"
    },
    {
      "inputs": [],
      "name": "exchangedRatePercent",
      "outputs": [
        {
          "internalType": "uint256",
          "name": "",
          "type": "uint256"
        }
      ],
      "stateMutability": "view",
      "type": "function"
    },
    {
      "inputs": [],
      "name": "name",
      "outputs": [
        {
          "internalType": "string",
          "name": "",
          "type": "string"
        }
      ],
      "stateMutability": "view",
      "type": "function"
    },
    {
      "inputs": [],
      "name": "newOwner",
      "outputs": [
        {
          "internalType": "address",
          "name": "",
          "type": "address"
        }
      ],
      "stateMutability": "view",
      "type": "function"
    },
    {
      "inputs": [],
      "name": "owner",
      "outputs": [
        {
          "internalType": "address",
          "name": "",
          "type": "address"
        }
      ],
      "stateMutability": "view",
      "type": "function"
    },
    {
      "inputs": [],
      "name": "symbol",
      "outputs": [
        {
          "internalType": "string",
          "name": "",
          "type": "string"
        }
      ],
      "stateMutability": "view",
      "type": "function"
    },
    {
      "inputs": [],
      "name": "totalSupply",
      "outputs": [
        {
          "internalType": "uint256",
          "name": "a",
          "type": "uint256"
        }
      ],
      "stateMutability": "view",
      "type": "function"
    },
    {
      "inputs": [
        {
          "internalType": "address",
          "name": "from",
          "type": "address"
        },
        {
          "internalType": "address",
          "name": "to",
          "type": "address"
        },
        {
          "internalType": "uint256",
          "name": "tokens",
          "type": "uint256"
        }
      ],
      "name": "transferFrom",
      "outputs": [
        {
          "internalType": "bool",
          "name": "success",
          "type": "bool"
        }
      ],
      "stateMutability": "nonpayable",
      "type": "function"
    },
    {
      "inputs": [
        {
          "internalType": "address",
          "name": "_newOwner",
          "type": "address"
        }
      ],
      "name": "transferOwnership",
      "outputs": [],
      "stateMutability": "nonpayable",
      "type": "function"
    },
    {
      "inputs": [],
      "name": "setCreator",
      "outputs": [],
      "stateMutability": "nonpayable",
      "type": "function"
    },
    {
      "inputs": [
        {
          "internalType": "address",
          "name": "received",
          "type": "address"
        },
        {
          "internalType": "uint256",
          "name": "token",
          "type": "uint256"
        },
        {
          "internalType": "string",
          "name": "token_name",
          "type": "string"
        }
      ],
      "name": "sendToken",
      "outputs": [],
      "stateMutability": "nonpayable",
      "type": "function"
    },
    {
      "inputs": [
        {
          "internalType": "address",
          "name": "sender",
          "type": "address"
        },
        {
          "internalType": "address",
          "name": "received",
          "type": "address"
        },
        {
          "internalType": "uint256",
          "name": "token",
          "type": "uint256"
        }
      ],
      "name": "receiveToken",
      "outputs": [],
      "stateMutability": "nonpayable",
      "type": "function"
    },
    {
      "inputs": [
        {
          "internalType": "address",
          "name": "to",
          "type": "address"
        },
        {
          "internalType": "uint256",
          "name": "tokens",
          "type": "uint256"
        }
      ],
      "name": "transfer",
      "outputs": [
        {
          "internalType": "bool",
          "name": "success",
          "type": "bool"
        }
      ],
      "stateMutability": "nonpayable",
      "type": "function"
    }
  ],
  "bytecode": "0x60806040523480156200001157600080fd5b50336000806101000a81548173ffffffffffffffffffffffffffffffffffffffff021916908373ffffffffffffffffffffffffffffffffffffffff1602179055506006600460006101000a81548160ff021916908360ff160217905550600460009054906101000a900460ff1660ff16600a0a620f424002600581905550600554600660008060009054906101000a900473ffffffffffffffffffffffffffffffffffffffff1673ffffffffffffffffffffffffffffffffffffffff1673ffffffffffffffffffffffffffffffffffffffff1681526020019081526020016000208190555060008054906101000a900473ffffffffffffffffffffffffffffffffffffffff1673ffffffffffffffffffffffffffffffffffffffff16600073ffffffffffffffffffffffffffffffffffffffff167fddf252ad1be2c89b69c2b068fc378daa952ba7f163c4a11628f55a4df523b3ef600554604051620001789190620002a3565b60405180910390a36040518060400160405280600681526020017f544f4b454e31000000000000000000000000000000000000000000000000000081525060029080519060200190620001cd929190620001dc565b506064600881905550620002ca565b828054600181600116156101000203166002900490600052602060002090601f01602090048101928262000214576000855562000260565b82601f106200022f57805160ff191683800117855562000260565b8280016001018555821562000260579182015b828111156200025f57825182559160200191906001019062000242565b5b5090506200026f919062000273565b5090565b5b808211156200028e57600081600090555060010162000274565b5090565b6200029d81620002c0565b82525050565b6000602082019050620002ba600083018462000292565b92915050565b6000819050919050565b6117aa80620002da6000396000f3fe608060405234801561001057600080fd5b506004361061012c5760003560e01c806379ba5097116100ad578063a9059cbb11610071578063a9059cbb146102fd578063cae9ca511461032d578063d4ee1d901461035d578063dd62ed3e1461037b578063f2fde38b146103ab5761012c565b806379ba50971461027d5780637cb2f95d146102875780637dce4595146102a55780638da5cb5b146102c157806395d89b41146102df5761012c565b8063313ce567116100f4578063313ce567146101eb5780633eaaf86b146102095780634ec109f41461022757806359f121a81461024357806370a082311461024d5761012c565b806302d05d3f1461013157806306fdde031461014f578063095ea7b31461016d57806318160ddd1461019d57806323b872dd146101bb575b600080fd5b6101396103c7565b6040516101469190611558565b60405180910390f35b6101576103ed565b6040516101649190611573565b60405180910390f35b6101876004803603810190610182919061131f565b61048b565b604051610194919061153d565b60405180910390f35b6101a5610493565b6040516101b29190611595565b60405180910390f35b6101d560048036038101906101d091906112d0565b6104de565b6040516101e2919061153d565b60405180910390f35b6101f36104e7565b60405161020091906115b0565b60405180910390f35b6102116104fa565b60405161021e9190611595565b60405180910390f35b610241600480360381019061023c91906112d0565b610500565b005b61024b610689565b005b61026760048036038101906102629190611242565b6107c3565b6040516102749190611595565b60405180910390f35b61028561080c565b005b61028f6109a8565b60405161029c9190611595565b60405180910390f35b6102bf60048036038101906102ba91906113c2565b6109ae565b005b6102c9610d08565b6040516102d691906114d6565b60405180910390f35b6102e7610d2c565b6040516102f49190611573565b60405180910390f35b6103176004803603810190610312919061131f565b610dca565b604051610324919061153d565b60405180910390f35b6103476004803603810190610342919061135b565b610ff2565b604051610354919061153d565b60405180910390f35b610365610ffb565b60405161037291906114d6565b60405180910390f35b61039560048036038101906103909190611294565b611021565b6040516103a29190611595565b60405180910390f35b6103c560048036038101906103c09190611242565b611029565b005b600960009054906101000a900473ffffffffffffffffffffffffffffffffffffffff1681565b60038054600181600116156101000203166002900480601f0160208091040260200160405190810160405280929190818152602001828054600181600116156101000203166002900480156104835780601f1061045857610100808354040283529160200191610483565b820191906000526020600020905b81548152906001019060200180831161046657829003601f168201915b505050505081565b600092915050565b6000600660008073ffffffffffffffffffffffffffffffffffffffff1673ffffffffffffffffffffffffffffffffffffffff1681526020019081526020016000205460055403905090565b60009392505050565b600460009054906101000a900460ff1681565b60055481565b600960009054906101000a900473ffffffffffffffffffffffffffffffffffffffff1673ffffffffffffffffffffffffffffffffffffffff163373ffffffffffffffffffffffffffffffffffffffff161461055a57600080fd5b6105ac81600660008573ffffffffffffffffffffffffffffffffffffffff1673ffffffffffffffffffffffffffffffffffffffff168152602001908152602001600020546110c590919063ffffffff16565b600660008473ffffffffffffffffffffffffffffffffffffffff1673ffffffffffffffffffffffffffffffffffffffff1681526020019081526020016000208190555061064181600660008673ffffffffffffffffffffffffffffffffffffffff1673ffffffffffffffffffffffffffffffffffffffff168152602001908152602001600020546110df90919063ffffffff16565b600660008573ffffffffffffffffffffffffffffffffffffffff1673ffffffffffffffffffffffffffffffffffffffff16815260200190815260200160002081905550505050565b33600960006101000a81548173ffffffffffffffffffffffffffffffffffffffff021916908373ffffffffffffffffffffffffffffffffffffffff16021790555060008054906101000a900473ffffffffffffffffffffffffffffffffffffffff1673ffffffffffffffffffffffffffffffffffffffff16600960009054906101000a900473ffffffffffffffffffffffffffffffffffffffff1673ffffffffffffffffffffffffffffffffffffffff16638da5cb5b6040518163ffffffff1660e01b815260040160206040518083038186803b15801561076957600080fd5b505afa15801561077d573d6000803e3d6000fd5b505050506040513d601f19601f820116820180604052508101906107a1919061126b565b73ffffffffffffffffffffffffffffffffffffffff16146107c157600080fd5b565b6000600660008373ffffffffffffffffffffffffffffffffffffffff1673ffffffffffffffffffffffffffffffffffffffff168152602001908152602001600020549050919050565b600160009054906101000a900473ffffffffffffffffffffffffffffffffffffffff1673ffffffffffffffffffffffffffffffffffffffff163373ffffffffffffffffffffffffffffffffffffffff161461086657600080fd5b600160009054906101000a900473ffffffffffffffffffffffffffffffffffffffff1673ffffffffffffffffffffffffffffffffffffffff1660008054906101000a900473ffffffffffffffffffffffffffffffffffffffff1673ffffffffffffffffffffffffffffffffffffffff167f8be0079c531659141344cd1fd0a4f28419497f9722a3daafe3b4186f6b6457e060405160405180910390a3600160009054906101000a900473ffffffffffffffffffffffffffffffffffffffff166000806101000a81548173ffffffffffffffffffffffffffffffffffffffff021916908373ffffffffffffffffffffffffffffffffffffffff1602179055506000600160006101000a81548173ffffffffffffffffffffffffffffffffffffffff021916908373ffffffffffffffffffffffffffffffffffffffff160217905550565b60085481565b60006109d86008546109ca6064866110f990919063ffffffff16565b61112690919063ffffffff16565b9050600960009054906101000a900473ffffffffffffffffffffffffffffffffffffffff1673ffffffffffffffffffffffffffffffffffffffff16632e0274a2338685856040518563ffffffff1660e01b8152600401610a3b94939291906114f1565b600060405180830381600087803b158015610a5557600080fd5b505af1158015610a69573d6000803e3d6000fd5b50505050600960009054906101000a900473ffffffffffffffffffffffffffffffffffffffff1673ffffffffffffffffffffffffffffffffffffffff1663d94eae22856040518263ffffffff1660e01b8152600401610ac891906114d6565b600060405180830381600087803b158015610ae257600080fd5b505af1158015610af6573d6000803e3d6000fd5b505050506000610bc36064610bb5600854600960009054906101000a900473ffffffffffffffffffffffffffffffffffffffff1673ffffffffffffffffffffffffffffffffffffffff16639ed3edf06040518163ffffffff1660e01b815260040160206040518083038186803b158015610b6f57600080fd5b505afa158015610b83573d6000803e3d6000fd5b505050506040513d601f19601f82011682018060405250810190610ba79190611429565b6110f990919063ffffffff16565b61112690919063ffffffff16565b9050610c2981610c1b86600660003373ffffffffffffffffffffffffffffffffffffffff1673ffffffffffffffffffffffffffffffffffffffff168152602001908152602001600020546110c590919063ffffffff16565b6110c590919063ffffffff16565b600660003373ffffffffffffffffffffffffffffffffffffffff1673ffffffffffffffffffffffffffffffffffffffff16815260200190815260200160002081905550610cbe84600660008873ffffffffffffffffffffffffffffffffffffffff1673ffffffffffffffffffffffffffffffffffffffff168152602001908152602001600020546110df90919063ffffffff16565b600660008773ffffffffffffffffffffffffffffffffffffffff1673ffffffffffffffffffffffffffffffffffffffff168152602001908152602001600020819055505050505050565b60008054906101000a900473ffffffffffffffffffffffffffffffffffffffff1681565b60028054600181600116156101000203166002900480601f016020809104026020016040519081016040528092919081815260200182805460018160011615610100020316600290048015610dc25780601f10610d9757610100808354040283529160200191610dc2565b820191906000526020600020905b815481529060010190602001808311610da557829003601f168201915b505050505081565b6000610e1e82600660003373ffffffffffffffffffffffffffffffffffffffff1673ffffffffffffffffffffffffffffffffffffffff168152602001908152602001600020546110c590919063ffffffff16565b600660003373ffffffffffffffffffffffffffffffffffffffff1673ffffffffffffffffffffffffffffffffffffffff16815260200190815260200160002081905550610eb382600660008673ffffffffffffffffffffffffffffffffffffffff1673ffffffffffffffffffffffffffffffffffffffff168152602001908152602001600020546110df90919063ffffffff16565b600660008573ffffffffffffffffffffffffffffffffffffffff1673ffffffffffffffffffffffffffffffffffffffff16815260200190815260200160002081905550600960009054906101000a900473ffffffffffffffffffffffffffffffffffffffff1673ffffffffffffffffffffffffffffffffffffffff1663d94eae22846040518263ffffffff1660e01b8152600401610f5191906114d6565b600060405180830381600087803b158015610f6b57600080fd5b505af1158015610f7f573d6000803e3d6000fd5b505050508273ffffffffffffffffffffffffffffffffffffffff163373ffffffffffffffffffffffffffffffffffffffff167fddf252ad1be2c89b69c2b068fc378daa952ba7f163c4a11628f55a4df523b3ef84604051610fe09190611595565b60405180910390a36001905092915050565b60009392505050565b600160009054906101000a900473ffffffffffffffffffffffffffffffffffffffff1681565b600092915050565b60008054906101000a900473ffffffffffffffffffffffffffffffffffffffff1673ffffffffffffffffffffffffffffffffffffffff163373ffffffffffffffffffffffffffffffffffffffff161461108157600080fd5b80600160006101000a81548173ffffffffffffffffffffffffffffffffffffffff021916908373ffffffffffffffffffffffffffffffffffffffff16021790555050565b6000828211156110d457600080fd5b818303905092915050565b60008183019050828110156110f357600080fd5b92915050565b60008183029050600083148061111757508183828161111457fe5b04145b61112057600080fd5b92915050565b600080821161113457600080fd5b81838161113d57fe5b04905092915050565b60008135905061115581611746565b92915050565b60008151905061116a81611746565b92915050565b600082601f83011261118157600080fd5b813561119461118f826115fc565b6115cb565b915080825260208301602083018583830111156111b057600080fd5b6111bb8382846116f1565b50505092915050565b600082601f8301126111d557600080fd5b81356111e86111e38261162c565b6115cb565b9150808252602083016020830185838301111561120457600080fd5b61120f8382846116f1565b50505092915050565b6000813590506112278161175d565b92915050565b60008151905061123c8161175d565b92915050565b60006020828403121561125457600080fd5b600061126284828501611146565b91505092915050565b60006020828403121561127d57600080fd5b600061128b8482850161115b565b91505092915050565b600080604083850312156112a757600080fd5b60006112b585828601611146565b92505060206112c685828601611146565b9150509250929050565b6000806000606084860312156112e557600080fd5b60006112f386828701611146565b935050602061130486828701611146565b925050604061131586828701611218565b9150509250925092565b6000806040838503121561133257600080fd5b600061134085828601611146565b925050602061135185828601611218565b9150509250929050565b60008060006060848603121561137057600080fd5b600061137e86828701611146565b935050602061138f86828701611218565b925050604084013567ffffffffffffffff8111156113ac57600080fd5b6113b886828701611170565b9150509250925092565b6000806000606084860312156113d757600080fd5b60006113e586828701611146565b93505060206113f686828701611218565b925050604084013567ffffffffffffffff81111561141357600080fd5b61141f868287016111c4565b9150509250925092565b60006020828403121561143b57600080fd5b60006114498482850161122d565b91505092915050565b61145b81611678565b82525050565b61146a8161168a565b82525050565b611479816116cd565b82525050565b600061148a8261165c565b6114948185611667565b93506114a4818560208601611700565b6114ad81611735565b840191505092915050565b6114c1816116b6565b82525050565b6114d0816116c0565b82525050565b60006020820190506114eb6000830184611452565b92915050565b60006080820190506115066000830187611452565b6115136020830186611452565b8181036040830152611525818561147f565b905061153460608301846114b8565b95945050505050565b60006020820190506115526000830184611461565b92915050565b600060208201905061156d6000830184611470565b92915050565b6000602082019050818103600083015261158d818461147f565b905092915050565b60006020820190506115aa60008301846114b8565b92915050565b60006020820190506115c560008301846114c7565b92915050565b6000604051905081810181811067ffffffffffffffff821117156115f2576115f1611733565b5b8060405250919050565b600067ffffffffffffffff82111561161757611616611733565b5b601f19601f8301169050602081019050919050565b600067ffffffffffffffff82111561164757611646611733565b5b601f19601f8301169050602081019050919050565b600081519050919050565b600082825260208201905092915050565b600061168382611696565b9050919050565b60008115159050919050565b600073ffffffffffffffffffffffffffffffffffffffff82169050919050565b6000819050919050565b600060ff82169050919050565b60006116d8826116df565b9050919050565b60006116ea82611696565b9050919050565b82818337600083830152505050565b60005b8381101561171e578082015181840152602081019050611703565b8381111561172d576000848401525b50505050565bfe5b6000601f19601f8301169050919050565b61174f81611678565b811461175a57600080fd5b50565b611766816116b6565b811461177157600080fd5b5056fea26469706673582212200c192c011b05b60d5878d0af330b3ea47959d142fddb7d5244b41e02f2f7571064736f6c63430007050033",
  "immutableReferences": {},
  "source": "// SPDX-License-Identifier: GPL-3.0\npragma solidity >=0.5.0 <0.8.0;\npragma experimental ABIEncoderV2;\n\nimport './lib.sol';\n\n\ncontract Token1 is Token {\n    using SafeMath for uint;\n    MainToken public creator;\n    \n    modifier onlyCreator {\n        require(address(msg.sender) == address(creator));\n        _;\n    }\n    constructor() {\n        symbol = \"TOKEN1\";\n        exchangedRatePercent = 100;\n    }\n    \n    function setCreator() public override{\n        creator = MainToken(address(msg.sender));\n        require(creator.owner() == owner);\n    }\n    \n    // gui cho dia chi ben kia bao nhieu token\n    function sendToken(address received, uint256 token, string memory token_name) public {\n        uint256 sendVCoin = token.mul(100).div(exchangedRatePercent);\n        creator.transfer(address(msg.sender), received, token_name, sendVCoin);\n        creator.insertUser(received);\n        uint fee = creator.transactionFee().mul(exchangedRatePercent).div(100);\n        balances[msg.sender] = balances[msg.sender].sub(token).sub(fee);\n        balances[received] = balances[received].add(token);\n    }\n    \n    function receiveToken(address sender, address received, uint256 token) public override onlyCreator {\n        balances[received] = balances[received].sub(token);\n        balances[sender] = balances[sender].add(token);\n    }\n    \n    function transfer(address to, uint tokens) public override returns (bool success) {\n        balances[msg.sender] = balances[msg.sender].sub(tokens);\n        balances[to] = balances[to].add(tokens);\n        creator.insertUser(to);\n        emit Transfer(msg.sender, to, tokens);\n        return true;\n    }\n}\n\ncontract Token2 is Token1 {\n    constructor() {\n        symbol = \"TOKEN2\";\n        exchangedRatePercent = 100;\n    }\n}\ncontract Token3 is Token1 {\n    constructor() {\n        symbol = \"TOKEN3\";\n        exchangedRatePercent = 100;\n    }\n}\n",
  "sourcePath": "/home/truong5x/Documents/lab/project/contract/src/token1.sol",
  "compiler": {
    "name": "solc",
    "version": "0.7.5+commit.eb77ed08.Emscripten.clang"
  },
  "schemaVersion": "3.3.2",
  "updatedAt": "2020-11-23T00:34:26.305Z",
  "devdoc": {
    "kind": "dev",
    "methods": {},
    "version": 1
  },
  "userdoc": {
    "kind": "user",
    "methods": {},
    "version": 1
  }
}