{
  "contractName": "VCoin",
  "abi": [
    {
      "inputs": [],
      "stateMutability": "nonpayable",
      "type": "constructor"
    },
    {
      "anonymous": false,
      "inputs": [
        {
          "indexed": true,
          "internalType": "address",
          "name": "tokenOwner",
          "type": "address"
        },
        {
          "indexed": true,
          "internalType": "address",
          "name": "spender",
          "type": "address"
        },
        {
          "indexed": false,
          "internalType": "uint256",
          "name": "tokens",
          "type": "uint256"
        }
      ],
      "name": "Approval",
      "type": "event"
    },
    {
      "anonymous": false,
      "inputs": [
        {
          "indexed": true,
          "internalType": "address",
          "name": "_from",
          "type": "address"
        },
        {
          "indexed": true,
          "internalType": "address",
          "name": "_to",
          "type": "address"
        }
      ],
      "name": "OwnershipTransferred",
      "type": "event"
    },
    {
      "anonymous": false,
      "inputs": [
        {
          "indexed": true,
          "internalType": "address",
          "name": "from",
          "type": "address"
        },
        {
          "indexed": true,
          "internalType": "address",
          "name": "to",
          "type": "address"
        },
        {
          "indexed": false,
          "internalType": "uint256",
          "name": "tokens",
          "type": "uint256"
        }
      ],
      "name": "Transfer",
      "type": "event"
    },
    {
      "inputs": [],
      "name": "_totalSupply",
      "outputs": [
        {
          "internalType": "uint256",
          "name": "",
          "type": "uint256"
        }
      ],
      "stateMutability": "view",
      "type": "function"
    },
    {
      "inputs": [],
      "name": "acceptOwnership",
      "outputs": [],
      "stateMutability": "nonpayable",
      "type": "function"
    },
    {
      "inputs": [
        {
          "internalType": "address",
          "name": "tokenOwner",
          "type": "address"
        },
        {
          "internalType": "address",
          "name": "spender",
          "type": "address"
        }
      ],
      "name": "allowance",
      "outputs": [
        {
          "internalType": "uint256",
          "name": "remaining",
          "type": "uint256"
        }
      ],
      "stateMutability": "view",
      "type": "function"
    },
    {
      "inputs": [
        {
          "internalType": "address",
          "name": "spender",
          "type": "address"
        },
        {
          "internalType": "uint256",
          "name": "tokens",
          "type": "uint256"
        }
      ],
      "name": "approve",
      "outputs": [
        {
          "internalType": "bool",
          "name": "success",
          "type": "bool"
        }
      ],
      "stateMutability": "nonpayable",
      "type": "function"
    },
    {
      "inputs": [
        {
          "internalType": "address",
          "name": "spender",
          "type": "address"
        },
        {
          "internalType": "uint256",
          "name": "tokens",
          "type": "uint256"
        },
        {
          "internalType": "bytes",
          "name": "data",
          "type": "bytes"
        }
      ],
      "name": "approveAndCall",
      "outputs": [
        {
          "internalType": "bool",
          "name": "success",
          "type": "bool"
        }
      ],
      "stateMutability": "nonpayable",
      "type": "function"
    },
    {
      "inputs": [
        {
          "internalType": "address",
          "name": "tokenOwner",
          "type": "address"
        }
      ],
      "name": "balanceOf",
      "outputs": [
        {
          "internalType": "uint256",
          "name": "balance",
          "type": "uint256"
        }
      ],
      "stateMutability": "view",
      "type": "function"
    },
    {
      "inputs": [],
      "name": "decimals",
      "outputs": [
        {
          "internalType": "uint8",
          "name": "",
          "type": "uint8"
        }
      ],
      "stateMutability": "view",
      "type": "function"
    },
    {
      "inputs": [],
      "name": "name",
      "outputs": [
        {
          "internalType": "string",
          "name": "",
          "type": "string"
        }
      ],
      "stateMutability": "view",
      "type": "function"
    },
    {
      "inputs": [],
      "name": "newOwner",
      "outputs": [
        {
          "internalType": "address",
          "name": "",
          "type": "address"
        }
      ],
      "stateMutability": "view",
      "type": "function"
    },
    {
      "inputs": [],
      "name": "owner",
      "outputs": [
        {
          "internalType": "address",
          "name": "",
          "type": "address"
        }
      ],
      "stateMutability": "view",
      "type": "function"
    },
    {
      "inputs": [],
      "name": "symbol",
      "outputs": [
        {
          "internalType": "string",
          "name": "",
          "type": "string"
        }
      ],
      "stateMutability": "view",
      "type": "function"
    },
    {
      "inputs": [
        {
          "internalType": "uint256",
          "name": "",
          "type": "uint256"
        }
      ],
      "name": "tokenIndex",
      "outputs": [
        {
          "internalType": "string",
          "name": "",
          "type": "string"
        }
      ],
      "stateMutability": "view",
      "type": "function"
    },
    {
      "inputs": [
        {
          "internalType": "string",
          "name": "",
          "type": "string"
        }
      ],
      "name": "tokenStruct",
      "outputs": [
        {
          "internalType": "contract Token",
          "name": "tokenAddress",
          "type": "address"
        },
        {
          "internalType": "uint256",
          "name": "index",
          "type": "uint256"
        }
      ],
      "stateMutability": "view",
      "type": "function"
    },
    {
      "inputs": [],
      "name": "totalSupply",
      "outputs": [
        {
          "internalType": "uint256",
          "name": "a",
          "type": "uint256"
        }
      ],
      "stateMutability": "view",
      "type": "function"
    },
    {
      "inputs": [],
      "name": "transactionFee",
      "outputs": [
        {
          "internalType": "uint256",
          "name": "",
          "type": "uint256"
        }
      ],
      "stateMutability": "view",
      "type": "function"
    },
    {
      "inputs": [
        {
          "internalType": "address",
          "name": "from",
          "type": "address"
        },
        {
          "internalType": "address",
          "name": "to",
          "type": "address"
        },
        {
          "internalType": "uint256",
          "name": "tokens",
          "type": "uint256"
        }
      ],
      "name": "transferFrom",
      "outputs": [
        {
          "internalType": "bool",
          "name": "success",
          "type": "bool"
        }
      ],
      "stateMutability": "nonpayable",
      "type": "function"
    },
    {
      "inputs": [
        {
          "internalType": "address",
          "name": "_newOwner",
          "type": "address"
        }
      ],
      "name": "transferOwnership",
      "outputs": [],
      "stateMutability": "nonpayable",
      "type": "function"
    },
    {
      "inputs": [
        {
          "internalType": "uint256",
          "name": "",
          "type": "uint256"
        }
      ],
      "name": "userIndex",
      "outputs": [
        {
          "internalType": "address",
          "name": "",
          "type": "address"
        }
      ],
      "stateMutability": "view",
      "type": "function"
    },
    {
      "inputs": [
        {
          "internalType": "address",
          "name": "token_addr",
          "type": "address"
        }
      ],
      "name": "addToken",
      "outputs": [],
      "stateMutability": "nonpayable",
      "type": "function"
    },
    {
      "inputs": [
        {
          "internalType": "string",
          "name": "token_name",
          "type": "string"
        }
      ],
      "name": "removeToken",
      "outputs": [],
      "stateMutability": "nonpayable",
      "type": "function"
    },
    {
      "inputs": [
        {
          "internalType": "address",
          "name": "sender",
          "type": "address"
        },
        {
          "internalType": "address",
          "name": "received",
          "type": "address"
        },
        {
          "internalType": "string",
          "name": "token_name",
          "type": "string"
        },
        {
          "internalType": "uint256",
          "name": "vcoin",
          "type": "uint256"
        }
      ],
      "name": "transfer",
      "outputs": [],
      "stateMutability": "nonpayable",
      "type": "function"
    },
    {
      "inputs": [
        {
          "internalType": "address",
          "name": "to",
          "type": "address"
        },
        {
          "internalType": "uint256",
          "name": "tokens",
          "type": "uint256"
        }
      ],
      "name": "transfer",
      "outputs": [
        {
          "internalType": "bool",
          "name": "success",
          "type": "bool"
        }
      ],
      "stateMutability": "nonpayable",
      "type": "function"
    },
    {
      "inputs": [
        {
          "internalType": "address",
          "name": "userAddress",
          "type": "address"
        }
      ],
      "name": "isUser",
      "outputs": [
        {
          "internalType": "bool",
          "name": "isIndeed",
          "type": "bool"
        }
      ],
      "stateMutability": "view",
      "type": "function"
    },
    {
      "inputs": [
        {
          "internalType": "address",
          "name": "new_user",
          "type": "address"
        }
      ],
      "name": "insertUser",
      "outputs": [],
      "stateMutability": "nonpayable",
      "type": "function"
    },
    {
      "inputs": [
        {
          "internalType": "address",
          "name": "user_addr",
          "type": "address"
        }
      ],
      "name": "getUser",
      "outputs": [
        {
          "components": [
            {
              "internalType": "string",
              "name": "tokenName",
              "type": "string"
            },
            {
              "internalType": "uint256",
              "name": "balance",
              "type": "uint256"
            }
          ],
          "internalType": "struct VCoin.UserResult[]",
          "name": "",
          "type": "tuple[]"
        }
      ],
      "stateMutability": "view",
      "type": "function"
    }
  ],
  "bytecode": "0x60806040526207a1206008553480156200001857600080fd5b50336000806101000a81548173ffffffffffffffffffffffffffffffffffffffff021916908373ffffffffffffffffffffffffffffffffffffffff1602179055506006600460006101000a81548160ff021916908360ff160217905550600460009054906101000a900460ff1660ff16600a0a620f424002600581905550600554600660008060009054906101000a900473ffffffffffffffffffffffffffffffffffffffff1673ffffffffffffffffffffffffffffffffffffffff1673ffffffffffffffffffffffffffffffffffffffff1681526020019081526020016000208190555060008054906101000a900473ffffffffffffffffffffffffffffffffffffffff1673ffffffffffffffffffffffffffffffffffffffff16600073ffffffffffffffffffffffffffffffffffffffff167fddf252ad1be2c89b69c2b068fc378daa952ba7f163c4a11628f55a4df523b3ef6005546040516200017f91906200038b565b60405180910390a3600960008054906101000a900473ffffffffffffffffffffffffffffffffffffffff169080600181540180825580915050600190039060005260206000200160009091909190916101000a81548173ffffffffffffffffffffffffffffffffffffffff021916908373ffffffffffffffffffffffffffffffffffffffff1602179055506000600a60008060009054906101000a900473ffffffffffffffffffffffffffffffffffffffff1673ffffffffffffffffffffffffffffffffffffffff1673ffffffffffffffffffffffffffffffffffffffff168152602001908152602001600020819055506040518060400160405280600581526020017f56434f494e00000000000000000000000000000000000000000000000000000081525060029080519060200190620002bd929190620002c4565b50620003b2565b828054600181600116156101000203166002900490600052602060002090601f016020900481019282620002fc576000855562000348565b82601f106200031757805160ff191683800117855562000348565b8280016001018555821562000348579182015b82811115620003475782518255916020019190600101906200032a565b5b5090506200035791906200035b565b5090565b5b80821115620003765760008160009055506001016200035c565b5090565b6200038581620003a8565b82525050565b6000602082019050620003a260008301846200037a565b92915050565b6000819050919050565b6120be80620003c26000396000f3fe608060405234801561001057600080fd5b50600436106101735760003560e01c806370a08231116100de578063c37dfd6e11610097578063d4ee1d9011610071578063d4ee1d9014610489578063d94eae22146104a7578063dd62ed3e146104c3578063f2fde38b146104f357610173565b8063c37dfd6e1461040d578063cae9ca511461043d578063d48bfca71461046d57610173565b806370a082311461034957806379ba5097146103795780638da5cb5b1461038357806395d89b41146103a15780639ed3edf0146103bf578063a9059cbb146103dd57610173565b80632e0274a2116101305780632e0274a214610260578063313ce5671461027c5780633eaaf86b1461029a5780634209fff1146102b857806344b69b92146102e85780636f77926b1461031957610173565b80630583e9f81461017857806306fdde03146101a8578063095ea7b3146101c657806318160ddd146101f65780631f4559221461021457806323b872dd14610230575b600080fd5b610192600480360381019061018d9190611b4e565b61050f565b60405161019f9190611e32565b60405180910390f35b6101b06105cb565b6040516101bd9190611e32565b60405180910390f35b6101e060048036038101906101db9190611a29565b610669565b6040516101ed9190611dee565b60405180910390f35b6101fe610671565b60405161020b9190611e54565b60405180910390f35b61022e60048036038101906102299190611acc565b6106bc565b005b61024a600480360381019061024591906119da565b61081e565b6040516102579190611dee565b60405180910390f35b61027a6004803603810190610275919061195f565b610827565b005b61028461098b565b6040516102919190611e6f565b60405180910390f35b6102a261099e565b6040516102af9190611e54565b60405180910390f35b6102d260048036038101906102cd91906118fa565b6109a4565b6040516102df9190611dee565b60405180910390f35b61030260048036038101906102fd9190611acc565b610a52565b604051610310929190611e09565b60405180910390f35b610333600480360381019061032e91906118fa565b610aac565b6040516103409190611dcc565b60405180910390f35b610363600480360381019061035e91906118fa565b610cfd565b6040516103709190611e54565b60405180910390f35b610381610d46565b005b61038b610ee2565b6040516103989190611d7a565b60405180910390f35b6103a9610f06565b6040516103b69190611e32565b60405180910390f35b6103c7610fa4565b6040516103d49190611e54565b60405180910390f35b6103f760048036038101906103f29190611a29565b610faa565b6040516104049190611dee565b60405180910390f35b61042760048036038101906104229190611b4e565b61114e565b6040516104349190611d7a565b60405180910390f35b61045760048036038101906104529190611a65565b61118d565b6040516104649190611dee565b60405180910390f35b610487600480360381019061048291906118fa565b611196565b005b6104916114a7565b60405161049e9190611d7a565b60405180910390f35b6104c160048036038101906104bc91906118fa565b6114cd565b005b6104dd60048036038101906104d89190611923565b61158d565b6040516104ea9190611e54565b60405180910390f35b61050d600480360381019061050891906118fa565b611595565b005b600c818154811061051f57600080fd5b906000526020600020016000915090508054600181600116156101000203166002900480601f0160208091040260200160405190810160405280929190818152602001828054600181600116156101000203166002900480156105c35780601f10610598576101008083540402835291602001916105c3565b820191906000526020600020905b8154815290600101906020018083116105a657829003601f168201915b505050505081565b60038054600181600116156101000203166002900480601f0160208091040260200160405190810160405280929190818152602001828054600181600116156101000203166002900480156106615780601f1061063657610100808354040283529160200191610661565b820191906000526020600020905b81548152906001019060200180831161064457829003601f168201915b505050505081565b600092915050565b6000600660008073ffffffffffffffffffffffffffffffffffffffff1673ffffffffffffffffffffffffffffffffffffffff1681526020019081526020016000205460055403905090565b6000600b826040516106ce9190611d63565b90815260200160405180910390206001015490506060600c6001600c8054905003815481106106f957fe5b906000526020600020018054600181600116156101000203166002900480601f0160208091040260200160405190810160405280929190818152602001828054600181600116156101000203166002900480156107975780601f1061076c57610100808354040283529160200191610797565b820191906000526020600020905b81548152906001019060200180831161077a57829003601f168201915b5050505050905080600c83815481106107ac57fe5b9060005260206000200190805190602001906107c99291906116b2565b5081600b826040516107db9190611d63565b908152602001604051809103902060010181905550600c8054806107fb57fe5b6001900381819060005260206000200160006108179190611740565b9055505050565b60009392505050565b6000600b836040516108399190611d63565b908152602001604051809103902060000160009054906101000a900473ffffffffffffffffffffffffffffffffffffffff169050600061091260646109048473ffffffffffffffffffffffffffffffffffffffff16637cb2f95d6040518163ffffffff1660e01b815260040160206040518083038186803b1580156108bd57600080fd5b505afa1580156108d1573d6000803e3d6000fd5b505050506040513d601f19601f820116820180604052508101906108f59190611b77565b8661163190919063ffffffff16565b61165e90919063ffffffff16565b90508173ffffffffffffffffffffffffffffffffffffffff16634ec109f48787846040518463ffffffff1660e01b815260040161095193929190611d95565b600060405180830381600087803b15801561096b57600080fd5b505af115801561097f573d6000803e3d6000fd5b50505050505050505050565b600460009054906101000a900460ff1681565b60055481565b60008173ffffffffffffffffffffffffffffffffffffffff166009600a60008573ffffffffffffffffffffffffffffffffffffffff1673ffffffffffffffffffffffffffffffffffffffff1681526020019081526020016000205481548110610a0957fe5b9060005260206000200160009054906101000a900473ffffffffffffffffffffffffffffffffffffffff1673ffffffffffffffffffffffffffffffffffffffff16149050919050565b600b818051602081018201805184825260208301602085012081835280955050505050506000915090508060000160009054906101000a900473ffffffffffffffffffffffffffffffffffffffff16908060010154905082565b606080600c8054905067ffffffffffffffff81118015610acb57600080fd5b50604051908082528060200260200182016040528015610b0557816020015b610af2611788565b815260200190600190039081610aea5790505b50905060005b600c80549050811015610cf357600c8181548110610b2557fe5b906000526020600020018054600181600116156101000203166002900480601f016020809104026020016040519081016040528092919081815260200182805460018160011615610100020316600290048015610bc35780601f10610b9857610100808354040283529160200191610bc3565b820191906000526020600020905b815481529060010190602001808311610ba657829003601f168201915b5050505050828281518110610bd457fe5b6020026020010151600001819052506000600b838381518110610bf357fe5b602002602001015160000151604051610c0c9190611d63565b908152602001604051809103902060000160009054906101000a900473ffffffffffffffffffffffffffffffffffffffff1690508073ffffffffffffffffffffffffffffffffffffffff166370a08231866040518263ffffffff1660e01b8152600401610c799190611d7a565b60206040518083038186803b158015610c9157600080fd5b505afa158015610ca5573d6000803e3d6000fd5b505050506040513d601f19601f82011682018060405250810190610cc99190611b77565b838381518110610cd557fe5b60200260200101516020018181525050508080600101915050610b0b565b5080915050919050565b6000600660008373ffffffffffffffffffffffffffffffffffffffff1673ffffffffffffffffffffffffffffffffffffffff168152602001908152602001600020549050919050565b600160009054906101000a900473ffffffffffffffffffffffffffffffffffffffff1673ffffffffffffffffffffffffffffffffffffffff163373ffffffffffffffffffffffffffffffffffffffff1614610da057600080fd5b600160009054906101000a900473ffffffffffffffffffffffffffffffffffffffff1673ffffffffffffffffffffffffffffffffffffffff1660008054906101000a900473ffffffffffffffffffffffffffffffffffffffff1673ffffffffffffffffffffffffffffffffffffffff167f8be0079c531659141344cd1fd0a4f28419497f9722a3daafe3b4186f6b6457e060405160405180910390a3600160009054906101000a900473ffffffffffffffffffffffffffffffffffffffff166000806101000a81548173ffffffffffffffffffffffffffffffffffffffff021916908373ffffffffffffffffffffffffffffffffffffffff1602179055506000600160006101000a81548173ffffffffffffffffffffffffffffffffffffffff021916908373ffffffffffffffffffffffffffffffffffffffff160217905550565b60008054906101000a900473ffffffffffffffffffffffffffffffffffffffff1681565b60028054600181600116156101000203166002900480601f016020809104026020016040519081016040528092919081815260200182805460018160011615610100020316600290048015610f9c5780601f10610f7157610100808354040283529160200191610f9c565b820191906000526020600020905b815481529060010190602001808311610f7f57829003601f168201915b505050505081565b60085481565b6000610ffe82600660003373ffffffffffffffffffffffffffffffffffffffff1673ffffffffffffffffffffffffffffffffffffffff1681526020019081526020016000205461167e90919063ffffffff16565b600660003373ffffffffffffffffffffffffffffffffffffffff1673ffffffffffffffffffffffffffffffffffffffff1681526020019081526020016000208190555061109382600660008673ffffffffffffffffffffffffffffffffffffffff1673ffffffffffffffffffffffffffffffffffffffff1681526020019081526020016000205461169890919063ffffffff16565b600660008573ffffffffffffffffffffffffffffffffffffffff1673ffffffffffffffffffffffffffffffffffffffff168152602001908152602001600020819055506110df836114cd565b8273ffffffffffffffffffffffffffffffffffffffff163373ffffffffffffffffffffffffffffffffffffffff167fddf252ad1be2c89b69c2b068fc378daa952ba7f163c4a11628f55a4df523b3ef8460405161113c9190611e54565b60405180910390a36001905092915050565b6009818154811061115e57600080fd5b906000526020600020016000915054906101000a900473ffffffffffffffffffffffffffffffffffffffff1681565b60009392505050565b60008054906101000a900473ffffffffffffffffffffffffffffffffffffffff1673ffffffffffffffffffffffffffffffffffffffff163373ffffffffffffffffffffffffffffffffffffffff16146111ee57600080fd5b60008190508073ffffffffffffffffffffffffffffffffffffffff166359f121a86040518163ffffffff1660e01b8152600401600060405180830381600087803b15801561123b57600080fd5b505af115801561124f573d6000803e3d6000fd5b5050505080600b8273ffffffffffffffffffffffffffffffffffffffff166395d89b416040518163ffffffff1660e01b815260040160006040518083038186803b15801561129c57600080fd5b505afa1580156112b0573d6000803e3d6000fd5b505050506040513d6000823e3d601f19601f820116820180604052508101906112d99190611b0d565b6040516112e69190611d63565b908152602001604051809103902060000160006101000a81548173ffffffffffffffffffffffffffffffffffffffff021916908373ffffffffffffffffffffffffffffffffffffffff160217905550600c8173ffffffffffffffffffffffffffffffffffffffff166395d89b416040518163ffffffff1660e01b815260040160006040518083038186803b15801561137d57600080fd5b505afa158015611391573d6000803e3d6000fd5b505050506040513d6000823e3d601f19601f820116820180604052508101906113ba9190611b0d565b9080600181540180825580915050600190039060005260206000200160009091909190915090805190602001906113f29291906116b2565b506001600c8054905003600b8273ffffffffffffffffffffffffffffffffffffffff166395d89b416040518163ffffffff1660e01b815260040160006040518083038186803b15801561144457600080fd5b505afa158015611458573d6000803e3d6000fd5b505050506040513d6000823e3d601f19601f820116820180604052508101906114819190611b0d565b60405161148e9190611d63565b9081526020016040518091039020600101819055505050565b600160009054906101000a900473ffffffffffffffffffffffffffffffffffffffff1681565b6114d6816109a4565b61158a576009819080600181540180825580915050600190039060005260206000200160009091909190916101000a81548173ffffffffffffffffffffffffffffffffffffffff021916908373ffffffffffffffffffffffffffffffffffffffff160217905550600160098054905003600a60008373ffffffffffffffffffffffffffffffffffffffff1673ffffffffffffffffffffffffffffffffffffffff168152602001908152602001600020819055505b50565b600092915050565b60008054906101000a900473ffffffffffffffffffffffffffffffffffffffff1673ffffffffffffffffffffffffffffffffffffffff163373ffffffffffffffffffffffffffffffffffffffff16146115ed57600080fd5b80600160006101000a81548173ffffffffffffffffffffffffffffffffffffffff021916908373ffffffffffffffffffffffffffffffffffffffff16021790555050565b60008183029050600083148061164f57508183828161164c57fe5b04145b61165857600080fd5b92915050565b600080821161166c57600080fd5b81838161167557fe5b04905092915050565b60008282111561168d57600080fd5b818303905092915050565b60008183019050828110156116ac57600080fd5b92915050565b828054600181600116156101000203166002900490600052602060002090601f0160209004810192826116e8576000855561172f565b82601f1061170157805160ff191683800117855561172f565b8280016001018555821561172f579182015b8281111561172e578251825591602001919060010190611713565b5b50905061173c91906117a2565b5090565b50805460018160011615610100020316600290046000825580601f106117665750611785565b601f01602090049060005260206000209081019061178491906117a2565b5b50565b604051806040016040528060608152602001600081525090565b5b808211156117bb5760008160009055506001016117a3565b5090565b6000813590506117ce8161205a565b92915050565b600082601f8301126117e557600080fd5b81356117f86117f382611ebb565b611e8a565b9150808252602083016020830185838301111561181457600080fd5b61181f838284612005565b50505092915050565b600082601f83011261183957600080fd5b813561184c61184782611eeb565b611e8a565b9150808252602083016020830185838301111561186857600080fd5b611873838284612005565b50505092915050565b600082601f83011261188d57600080fd5b81516118a061189b82611eeb565b611e8a565b915080825260208301602083018583830111156118bc57600080fd5b6118c7838284612014565b50505092915050565b6000813590506118df81612071565b92915050565b6000815190506118f481612071565b92915050565b60006020828403121561190c57600080fd5b600061191a848285016117bf565b91505092915050565b6000806040838503121561193657600080fd5b6000611944858286016117bf565b9250506020611955858286016117bf565b9150509250929050565b6000806000806080858703121561197557600080fd5b6000611983878288016117bf565b9450506020611994878288016117bf565b935050604085013567ffffffffffffffff8111156119b157600080fd5b6119bd87828801611828565b92505060606119ce878288016118d0565b91505092959194509250565b6000806000606084860312156119ef57600080fd5b60006119fd868287016117bf565b9350506020611a0e868287016117bf565b9250506040611a1f868287016118d0565b9150509250925092565b60008060408385031215611a3c57600080fd5b6000611a4a858286016117bf565b9250506020611a5b858286016118d0565b9150509250929050565b600080600060608486031215611a7a57600080fd5b6000611a88868287016117bf565b9350506020611a99868287016118d0565b925050604084013567ffffffffffffffff811115611ab657600080fd5b611ac2868287016117d4565b9150509250925092565b600060208284031215611ade57600080fd5b600082013567ffffffffffffffff811115611af857600080fd5b611b0484828501611828565b91505092915050565b600060208284031215611b1f57600080fd5b600082015167ffffffffffffffff811115611b3957600080fd5b611b458482850161187c565b91505092915050565b600060208284031215611b6057600080fd5b6000611b6e848285016118d0565b91505092915050565b600060208284031215611b8957600080fd5b6000611b97848285016118e5565b91505092915050565b6000611bac8383611cf9565b905092915050565b611bbd81611f8c565b82525050565b6000611bce82611f2b565b611bd88185611f4e565b935083602082028501611bea85611f1b565b8060005b85811015611c265784840389528151611c078582611ba0565b9450611c1283611f41565b925060208a01995050600181019050611bee565b50829750879550505050505092915050565b611c4181611f9e565b82525050565b611c5081611fe1565b82525050565b6000611c6182611f36565b611c6b8185611f5f565b9350611c7b818560208601612014565b611c8481612049565b840191505092915050565b6000611c9a82611f36565b611ca48185611f70565b9350611cb4818560208601612014565b611cbd81612049565b840191505092915050565b6000611cd382611f36565b611cdd8185611f81565b9350611ced818560208601612014565b80840191505092915050565b60006040830160008301518482036000860152611d168282611c56565b9150506020830151611d2b6020860182611d36565b508091505092915050565b611d3f81611fca565b82525050565b611d4e81611fca565b82525050565b611d5d81611fd4565b82525050565b6000611d6f8284611cc8565b915081905092915050565b6000602082019050611d8f6000830184611bb4565b92915050565b6000606082019050611daa6000830186611bb4565b611db76020830185611bb4565b611dc46040830184611d45565b949350505050565b60006020820190508181036000830152611de68184611bc3565b905092915050565b6000602082019050611e036000830184611c38565b92915050565b6000604082019050611e1e6000830185611c47565b611e2b6020830184611d45565b9392505050565b60006020820190508181036000830152611e4c8184611c8f565b905092915050565b6000602082019050611e696000830184611d45565b92915050565b6000602082019050611e846000830184611d54565b92915050565b6000604051905081810181811067ffffffffffffffff82111715611eb157611eb0612047565b5b8060405250919050565b600067ffffffffffffffff821115611ed657611ed5612047565b5b601f19601f8301169050602081019050919050565b600067ffffffffffffffff821115611f0657611f05612047565b5b601f19601f8301169050602081019050919050565b6000819050602082019050919050565b600081519050919050565b600081519050919050565b6000602082019050919050565b600082825260208201905092915050565b600082825260208201905092915050565b600082825260208201905092915050565b600081905092915050565b6000611f9782611faa565b9050919050565b60008115159050919050565b600073ffffffffffffffffffffffffffffffffffffffff82169050919050565b6000819050919050565b600060ff82169050919050565b6000611fec82611ff3565b9050919050565b6000611ffe82611faa565b9050919050565b82818337600083830152505050565b60005b83811015612032578082015181840152602081019050612017565b83811115612041576000848401525b50505050565bfe5b6000601f19601f8301169050919050565b61206381611f8c565b811461206e57600080fd5b50565b61207a81611fca565b811461208557600080fd5b5056fea26469706673582212206935881c7fd4bf21368127cf5de6a7f3352c23b4ddcfbb0d2711b5c6af6f2e3964736f6c63430007050033",
  "immutableReferences": {},
  "source": "// SPDX-License-Identifier: GPL-3.0\npragma solidity >=0.5.0 <0.8.0;\npragma experimental ABIEncoderV2;\n\nimport './lib.sol';\n\n\ncontract VCoin is MainToken {    \n    address[] public userIndex;\n    mapping(address => uint) tableIndex;\n    using SafeMath for uint;\n    mapping(string => TokenStruct) public tokenStruct;\n    string[] public tokenIndex;\n    \n    struct TokenStruct {\n        Token tokenAddress;\n        uint index;\n    }\n    \n    constructor() {\n        userIndex.push(owner);\n        tableIndex[owner] = 0;\n        symbol = \"VCOIN\";\n    }\n    \n    function addToken(address token_addr) external onlyOwner{\n        Token added = Token(token_addr);\n        added.setCreator();\n        tokenStruct[added.symbol()].tokenAddress = added;\n        tokenIndex.push(added.symbol());\n        tokenStruct[added.symbol()].index = tokenIndex.length-1;\n    }\n    \n    function removeToken(string memory token_name) external {\n        uint rowToDelete = tokenStruct[token_name].index;\n        string memory keyToMove = tokenIndex[tokenIndex.length-1];\n        tokenIndex[rowToDelete] = keyToMove;\n        tokenStruct[keyToMove].index = rowToDelete; \n        tokenIndex.pop();\n    }\n    \n    function transfer(address sender, address received, string memory token_name, uint256 vcoin) public override{\n        Token token = tokenStruct[token_name].tokenAddress;\n        uint256 sendAmount = vcoin.mul(token.exchangedRatePercent()).div(100);\n        token.receiveToken(sender, received, sendAmount);\n    }\n    \n    function transfer(address to, uint tokens) public override returns (bool success) {\n        balances[msg.sender] = balances[msg.sender].sub(tokens);\n        balances[to] = balances[to].add(tokens);\n        insertUser(to);\n        emit Transfer(msg.sender, to, tokens);\n        return true;\n    }\n    \n    function isUser(address userAddress) public view returns(bool isIndeed) {\n        return (userIndex[tableIndex[userAddress]] == userAddress);\n    }\n    \n    function insertUser(address new_user) public override {\n        if (!isUser(new_user)) {\n            userIndex.push(new_user);\n            tableIndex[new_user] = userIndex.length-1;\n        }\n    }\n\n    struct UserResult {\n        string tokenName;\n        uint256 balance;\n    }\n    \n    function getUser(address user_addr) public view returns(UserResult[] memory) {\n        UserResult[] memory result = new UserResult[](tokenIndex.length); \n        for (uint i =0; i< tokenIndex.length; i++) {\n            result[i].tokenName = tokenIndex[i];\n            Token a = tokenStruct[result[i].tokenName].tokenAddress;\n            result[i].balance = a.balanceOf(user_addr);\n        }\n        return result;\n    }\n}",
  "sourcePath": "/home/truong5x/Documents/lab/project/contract/src/main.sol",
  "compiler": {
    "name": "solc",
    "version": "0.7.5+commit.eb77ed08.Emscripten.clang"
  },
  "schemaVersion": "3.3.2",
  "updatedAt": "2020-11-23T00:34:26.296Z",
  "devdoc": {
    "kind": "dev",
    "methods": {},
    "version": 1
  },
  "userdoc": {
    "kind": "user",
    "methods": {},
    "version": 1
  }
}