{
  "contractName": "VCoin",
  "abi": [
    {
      "inputs": [],
      "stateMutability": "nonpayable",
      "type": "constructor"
    },
    {
      "anonymous": false,
      "inputs": [
        {
          "indexed": true,
          "internalType": "address",
          "name": "tokenOwner",
          "type": "address"
        },
        {
          "indexed": true,
          "internalType": "address",
          "name": "spender",
          "type": "address"
        },
        {
          "indexed": false,
          "internalType": "uint256",
          "name": "tokens",
          "type": "uint256"
        }
      ],
      "name": "Approval",
      "type": "event"
    },
    {
      "anonymous": false,
      "inputs": [
        {
          "indexed": true,
          "internalType": "address",
          "name": "_from",
          "type": "address"
        },
        {
          "indexed": true,
          "internalType": "address",
          "name": "_to",
          "type": "address"
        }
      ],
      "name": "OwnershipTransferred",
      "type": "event"
    },
    {
      "anonymous": false,
      "inputs": [
        {
          "indexed": true,
          "internalType": "address",
          "name": "from",
          "type": "address"
        },
        {
          "indexed": true,
          "internalType": "address",
          "name": "to",
          "type": "address"
        },
        {
          "indexed": false,
          "internalType": "uint256",
          "name": "tokens",
          "type": "uint256"
        }
      ],
      "name": "Transfer",
      "type": "event"
    },
    {
      "inputs": [],
      "name": "_totalSupply",
      "outputs": [
        {
          "internalType": "uint256",
          "name": "",
          "type": "uint256"
        }
      ],
      "stateMutability": "view",
      "type": "function",
      "constant": true
    },
    {
      "inputs": [],
      "name": "acceptOwnership",
      "outputs": [],
      "stateMutability": "nonpayable",
      "type": "function"
    },
    {
      "inputs": [
        {
          "internalType": "address",
          "name": "tokenOwner",
          "type": "address"
        },
        {
          "internalType": "address",
          "name": "spender",
          "type": "address"
        }
      ],
      "name": "allowance",
      "outputs": [
        {
          "internalType": "uint256",
          "name": "remaining",
          "type": "uint256"
        }
      ],
      "stateMutability": "view",
      "type": "function",
      "constant": true
    },
    {
      "inputs": [
        {
          "internalType": "address",
          "name": "spender",
          "type": "address"
        },
        {
          "internalType": "uint256",
          "name": "tokens",
          "type": "uint256"
        }
      ],
      "name": "approve",
      "outputs": [
        {
          "internalType": "bool",
          "name": "success",
          "type": "bool"
        }
      ],
      "stateMutability": "nonpayable",
      "type": "function"
    },
    {
      "inputs": [
        {
          "internalType": "address",
          "name": "spender",
          "type": "address"
        },
        {
          "internalType": "uint256",
          "name": "tokens",
          "type": "uint256"
        },
        {
          "internalType": "bytes",
          "name": "data",
          "type": "bytes"
        }
      ],
      "name": "approveAndCall",
      "outputs": [
        {
          "internalType": "bool",
          "name": "success",
          "type": "bool"
        }
      ],
      "stateMutability": "nonpayable",
      "type": "function"
    },
    {
      "inputs": [
        {
          "internalType": "address",
          "name": "tokenOwner",
          "type": "address"
        }
      ],
      "name": "balanceOf",
      "outputs": [
        {
          "internalType": "uint256",
          "name": "balance",
          "type": "uint256"
        }
      ],
      "stateMutability": "view",
      "type": "function",
      "constant": true
    },
    {
      "inputs": [],
      "name": "decimals",
      "outputs": [
        {
          "internalType": "uint8",
          "name": "",
          "type": "uint8"
        }
      ],
      "stateMutability": "view",
      "type": "function",
      "constant": true
    },
    {
      "inputs": [],
      "name": "name",
      "outputs": [
        {
          "internalType": "string",
          "name": "",
          "type": "string"
        }
      ],
      "stateMutability": "view",
      "type": "function",
      "constant": true
    },
    {
      "inputs": [],
      "name": "newOwner",
      "outputs": [
        {
          "internalType": "address",
          "name": "",
          "type": "address"
        }
      ],
      "stateMutability": "view",
      "type": "function",
      "constant": true
    },
    {
      "inputs": [],
      "name": "owner",
      "outputs": [
        {
          "internalType": "address",
          "name": "",
          "type": "address"
        }
      ],
      "stateMutability": "view",
      "type": "function",
      "constant": true
    },
    {
      "inputs": [],
      "name": "swapFee",
      "outputs": [
        {
          "internalType": "uint256",
          "name": "",
          "type": "uint256"
        }
      ],
      "stateMutability": "view",
      "type": "function",
      "constant": true
    },
    {
      "inputs": [],
      "name": "symbol",
      "outputs": [
        {
          "internalType": "string",
          "name": "",
          "type": "string"
        }
      ],
      "stateMutability": "view",
      "type": "function",
      "constant": true
    },
    {
      "inputs": [
        {
          "internalType": "uint256",
          "name": "",
          "type": "uint256"
        }
      ],
      "name": "tokenIndex",
      "outputs": [
        {
          "internalType": "string",
          "name": "",
          "type": "string"
        }
      ],
      "stateMutability": "view",
      "type": "function",
      "constant": true
    },
    {
      "inputs": [
        {
          "internalType": "string",
          "name": "",
          "type": "string"
        }
      ],
      "name": "tokenStruct",
      "outputs": [
        {
          "internalType": "contract Token",
          "name": "tokenAddress",
          "type": "address"
        },
        {
          "internalType": "uint256",
          "name": "index",
          "type": "uint256"
        }
      ],
      "stateMutability": "view",
      "type": "function",
      "constant": true
    },
    {
      "inputs": [],
      "name": "totalSupply",
      "outputs": [
        {
          "internalType": "uint256",
          "name": "a",
          "type": "uint256"
        }
      ],
      "stateMutability": "view",
      "type": "function",
      "constant": true
    },
    {
      "inputs": [
        {
          "internalType": "address",
          "name": "from",
          "type": "address"
        },
        {
          "internalType": "address",
          "name": "to",
          "type": "address"
        },
        {
          "internalType": "uint256",
          "name": "tokens",
          "type": "uint256"
        }
      ],
      "name": "transferFrom",
      "outputs": [
        {
          "internalType": "bool",
          "name": "success",
          "type": "bool"
        }
      ],
      "stateMutability": "nonpayable",
      "type": "function"
    },
    {
      "inputs": [
        {
          "internalType": "address",
          "name": "_newOwner",
          "type": "address"
        }
      ],
      "name": "transferOwnership",
      "outputs": [],
      "stateMutability": "nonpayable",
      "type": "function"
    },
    {
      "inputs": [
        {
          "internalType": "address",
          "name": "token_addr",
          "type": "address"
        }
      ],
      "name": "addToken",
      "outputs": [],
      "stateMutability": "nonpayable",
      "type": "function"
    },
    {
      "inputs": [
        {
          "internalType": "string",
          "name": "token_name",
          "type": "string"
        }
      ],
      "name": "removeToken",
      "outputs": [],
      "stateMutability": "nonpayable",
      "type": "function"
    },
    {
      "inputs": [
        {
          "internalType": "address",
          "name": "sender",
          "type": "address"
        },
        {
          "internalType": "address",
          "name": "received",
          "type": "address"
        },
        {
          "internalType": "string",
          "name": "token_name",
          "type": "string"
        },
        {
          "internalType": "uint256",
          "name": "vcoin",
          "type": "uint256"
        }
      ],
      "name": "transfer",
      "outputs": [],
      "stateMutability": "nonpayable",
      "type": "function"
    },
    {
      "inputs": [
        {
          "internalType": "address",
          "name": "to",
          "type": "address"
        },
        {
          "internalType": "uint256",
          "name": "tokens",
          "type": "uint256"
        }
      ],
      "name": "transfer",
      "outputs": [
        {
          "internalType": "bool",
          "name": "success",
          "type": "bool"
        }
      ],
      "stateMutability": "nonpayable",
      "type": "function"
    }
  ],
  "bytecode": "0x60806040526207a1206008553480156200001857600080fd5b50336000806101000a81548173ffffffffffffffffffffffffffffffffffffffff021916908373ffffffffffffffffffffffffffffffffffffffff1602179055506006600460006101000a81548160ff021916908360ff160217905550600460009054906101000a900460ff1660ff16600a0a620f424002600581905550600554600660008060009054906101000a900473ffffffffffffffffffffffffffffffffffffffff1673ffffffffffffffffffffffffffffffffffffffff1673ffffffffffffffffffffffffffffffffffffffff1681526020019081526020016000208190555060008054906101000a900473ffffffffffffffffffffffffffffffffffffffff1673ffffffffffffffffffffffffffffffffffffffff16600073ffffffffffffffffffffffffffffffffffffffff167fddf252ad1be2c89b69c2b068fc378daa952ba7f163c4a11628f55a4df523b3ef6005546040516200017f919062000308565b60405180910390a36000600960008060009054906101000a900473ffffffffffffffffffffffffffffffffffffffff1673ffffffffffffffffffffffffffffffffffffffff1673ffffffffffffffffffffffffffffffffffffffff168152602001908152602001600020819055506040518060400160405280600581526020017f56434f494e000000000000000000000000000000000000000000000000000000815250600290805190602001906200023a92919062000241565b506200032f565b828054600181600116156101000203166002900490600052602060002090601f016020900481019282620002795760008555620002c5565b82601f106200029457805160ff1916838001178555620002c5565b82800160010185558215620002c5579182015b82811115620002c4578251825591602001919060010190620002a7565b5b509050620002d49190620002d8565b5090565b5b80821115620002f3576000816000905550600101620002d9565b5090565b620003028162000325565b82525050565b60006020820190506200031f6000830184620002f7565b92915050565b6000819050919050565b612087806200033f6000396000f3fe608060405234801561001057600080fd5b50600436106101375760003560e01c806354cf2aeb116100b8578063a9059cbb1161007c578063a9059cbb14610341578063cae9ca5114610371578063d48bfca7146103a1578063d4ee1d90146103bd578063dd62ed3e146103db578063f2fde38b1461040b57610137565b806354cf2aeb146102ad57806370a08231146102cb57806379ba5097146102fb5780638da5cb5b1461030557806395d89b411461032357610137565b806323b872dd116100ff57806323b872dd146101f45780632e0274a214610224578063313ce567146102405780633eaaf86b1461025e57806344b69b921461027c57610137565b80630583e9f81461013c57806306fdde031461016c578063095ea7b31461018a57806318160ddd146101ba5780631f455922146101d8575b600080fd5b61015660048036038101906101519190611bab565b610427565b6040516101639190611df3565b60405180910390f35b6101746104e3565b6040516101819190611df3565b60405180910390f35b6101a4600480360381019061019f9190611a86565b610581565b6040516101b19190611daf565b60405180910390f35b6101c2610673565b6040516101cf9190611e15565b60405180910390f35b6101f260048036038101906101ed9190611b29565b6106be565b005b61020e60048036038101906102099190611a37565b610820565b60405161021b9190611daf565b60405180910390f35b61023e600480360381019061023991906119bc565b610acb565b005b610248610c2f565b6040516102559190611e30565b60405180910390f35b610266610c42565b6040516102739190611e15565b60405180910390f35b61029660048036038101906102919190611b29565b610c48565b6040516102a4929190611dca565b60405180910390f35b6102b5610ca2565b6040516102c29190611e15565b60405180910390f35b6102e560048036038101906102e09190611957565b610ca8565b6040516102f29190611e15565b60405180910390f35b610303610cf1565b005b61030d610e8d565b60405161031a9190611d11565b60405180910390f35b61032b610eb1565b6040516103389190611df3565b60405180910390f35b61035b60048036038101906103569190611a86565b610f4f565b6040516103689190611daf565b60405180910390f35b61038b60048036038101906103869190611ac2565b6110ea565b6040516103989190611daf565b60405180910390f35b6103bb60048036038101906103b69190611957565b61124e565b005b6103c561155f565b6040516103d29190611d11565b60405180910390f35b6103f560048036038101906103f09190611980565b611585565b6040516104029190611e15565b60405180910390f35b61042560048036038101906104209190611957565b61160c565b005b600b818154811061043757600080fd5b906000526020600020016000915090508054600181600116156101000203166002900480601f0160208091040260200160405190810160405280929190818152602001828054600181600116156101000203166002900480156104db5780601f106104b0576101008083540402835291602001916104db565b820191906000526020600020905b8154815290600101906020018083116104be57829003601f168201915b505050505081565b60038054600181600116156101000203166002900480601f0160208091040260200160405190810160405280929190818152602001828054600181600116156101000203166002900480156105795780601f1061054e57610100808354040283529160200191610579565b820191906000526020600020905b81548152906001019060200180831161055c57829003601f168201915b505050505081565b600081600760003373ffffffffffffffffffffffffffffffffffffffff1673ffffffffffffffffffffffffffffffffffffffff16815260200190815260200160002060008573ffffffffffffffffffffffffffffffffffffffff1673ffffffffffffffffffffffffffffffffffffffff168152602001908152602001600020819055508273ffffffffffffffffffffffffffffffffffffffff163373ffffffffffffffffffffffffffffffffffffffff167f8c5be1e5ebec7d5bd14f71427d1e84f3dd0314c0f7b2291e5b200ac8c7c3b925846040516106619190611e15565b60405180910390a36001905092915050565b6000600660008073ffffffffffffffffffffffffffffffffffffffff1673ffffffffffffffffffffffffffffffffffffffff1681526020019081526020016000205460055403905090565b6000600a826040516106d09190611cfa565b90815260200160405180910390206001015490506060600b6001600b8054905003815481106106fb57fe5b906000526020600020018054600181600116156101000203166002900480601f0160208091040260200160405190810160405280929190818152602001828054600181600116156101000203166002900480156107995780601f1061076e57610100808354040283529160200191610799565b820191906000526020600020905b81548152906001019060200180831161077c57829003601f168201915b5050505050905080600b83815481106107ae57fe5b9060005260206000200190805190602001906107cb929190611729565b5081600a826040516107dd9190611cfa565b908152602001604051809103902060010181905550600b8054806107fd57fe5b60019003818190600052602060002001600061081991906117b7565b9055505050565b600061087482600660008773ffffffffffffffffffffffffffffffffffffffff1673ffffffffffffffffffffffffffffffffffffffff168152602001908152602001600020546116a890919063ffffffff16565b600660008673ffffffffffffffffffffffffffffffffffffffff1673ffffffffffffffffffffffffffffffffffffffff1681526020019081526020016000208190555061094682600760008773ffffffffffffffffffffffffffffffffffffffff1673ffffffffffffffffffffffffffffffffffffffff16815260200190815260200160002060003373ffffffffffffffffffffffffffffffffffffffff1673ffffffffffffffffffffffffffffffffffffffff168152602001908152602001600020546116a890919063ffffffff16565b600760008673ffffffffffffffffffffffffffffffffffffffff1673ffffffffffffffffffffffffffffffffffffffff16815260200190815260200160002060003373ffffffffffffffffffffffffffffffffffffffff1673ffffffffffffffffffffffffffffffffffffffff16815260200190815260200160002081905550610a1882600660008673ffffffffffffffffffffffffffffffffffffffff1673ffffffffffffffffffffffffffffffffffffffff168152602001908152602001600020546116c290919063ffffffff16565b600660008573ffffffffffffffffffffffffffffffffffffffff1673ffffffffffffffffffffffffffffffffffffffff168152602001908152602001600020819055508273ffffffffffffffffffffffffffffffffffffffff168473ffffffffffffffffffffffffffffffffffffffff167fddf252ad1be2c89b69c2b068fc378daa952ba7f163c4a11628f55a4df523b3ef84604051610ab89190611e15565b60405180910390a3600190509392505050565b6000600a83604051610add9190611cfa565b908152602001604051809103902060000160009054906101000a900473ffffffffffffffffffffffffffffffffffffffff1690506000610bb66064610ba88473ffffffffffffffffffffffffffffffffffffffff16637cb2f95d6040518163ffffffff1660e01b815260040160206040518083038186803b158015610b6157600080fd5b505afa158015610b75573d6000803e3d6000fd5b505050506040513d601f19601f82011682018060405250810190610b999190611bd4565b866116dc90919063ffffffff16565b61170990919063ffffffff16565b90508173ffffffffffffffffffffffffffffffffffffffff16634ec109f48787846040518463ffffffff1660e01b8152600401610bf593929190611d78565b600060405180830381600087803b158015610c0f57600080fd5b505af1158015610c23573d6000803e3d6000fd5b50505050505050505050565b600460009054906101000a900460ff1681565b60055481565b600a818051602081018201805184825260208301602085012081835280955050505050506000915090508060000160009054906101000a900473ffffffffffffffffffffffffffffffffffffffff16908060010154905082565b60085481565b6000600660008373ffffffffffffffffffffffffffffffffffffffff1673ffffffffffffffffffffffffffffffffffffffff168152602001908152602001600020549050919050565b600160009054906101000a900473ffffffffffffffffffffffffffffffffffffffff1673ffffffffffffffffffffffffffffffffffffffff163373ffffffffffffffffffffffffffffffffffffffff1614610d4b57600080fd5b600160009054906101000a900473ffffffffffffffffffffffffffffffffffffffff1673ffffffffffffffffffffffffffffffffffffffff1660008054906101000a900473ffffffffffffffffffffffffffffffffffffffff1673ffffffffffffffffffffffffffffffffffffffff167f8be0079c531659141344cd1fd0a4f28419497f9722a3daafe3b4186f6b6457e060405160405180910390a3600160009054906101000a900473ffffffffffffffffffffffffffffffffffffffff166000806101000a81548173ffffffffffffffffffffffffffffffffffffffff021916908373ffffffffffffffffffffffffffffffffffffffff1602179055506000600160006101000a81548173ffffffffffffffffffffffffffffffffffffffff021916908373ffffffffffffffffffffffffffffffffffffffff160217905550565b60008054906101000a900473ffffffffffffffffffffffffffffffffffffffff1681565b60028054600181600116156101000203166002900480601f016020809104026020016040519081016040528092919081815260200182805460018160011615610100020316600290048015610f475780601f10610f1c57610100808354040283529160200191610f47565b820191906000526020600020905b815481529060010190602001808311610f2a57829003601f168201915b505050505081565b6000610fa382600660003373ffffffffffffffffffffffffffffffffffffffff1673ffffffffffffffffffffffffffffffffffffffff168152602001908152602001600020546116a890919063ffffffff16565b600660003373ffffffffffffffffffffffffffffffffffffffff1673ffffffffffffffffffffffffffffffffffffffff1681526020019081526020016000208190555061103882600660008673ffffffffffffffffffffffffffffffffffffffff1673ffffffffffffffffffffffffffffffffffffffff168152602001908152602001600020546116c290919063ffffffff16565b600660008573ffffffffffffffffffffffffffffffffffffffff1673ffffffffffffffffffffffffffffffffffffffff168152602001908152602001600020819055508273ffffffffffffffffffffffffffffffffffffffff163373ffffffffffffffffffffffffffffffffffffffff167fddf252ad1be2c89b69c2b068fc378daa952ba7f163c4a11628f55a4df523b3ef846040516110d89190611e15565b60405180910390a36001905092915050565b600082600760003373ffffffffffffffffffffffffffffffffffffffff1673ffffffffffffffffffffffffffffffffffffffff16815260200190815260200160002060008673ffffffffffffffffffffffffffffffffffffffff1673ffffffffffffffffffffffffffffffffffffffff168152602001908152602001600020819055508373ffffffffffffffffffffffffffffffffffffffff163373ffffffffffffffffffffffffffffffffffffffff167f8c5be1e5ebec7d5bd14f71427d1e84f3dd0314c0f7b2291e5b200ac8c7c3b925856040516111ca9190611e15565b60405180910390a38373ffffffffffffffffffffffffffffffffffffffff16638f4ffcb1338530866040518563ffffffff1660e01b81526004016112119493929190611d2c565b600060405180830381600087803b15801561122b57600080fd5b505af115801561123f573d6000803e3d6000fd5b50505050600190509392505050565b60008054906101000a900473ffffffffffffffffffffffffffffffffffffffff1673ffffffffffffffffffffffffffffffffffffffff163373ffffffffffffffffffffffffffffffffffffffff16146112a657600080fd5b60008190508073ffffffffffffffffffffffffffffffffffffffff166359f121a86040518163ffffffff1660e01b8152600401600060405180830381600087803b1580156112f357600080fd5b505af1158015611307573d6000803e3d6000fd5b5050505080600a8273ffffffffffffffffffffffffffffffffffffffff166395d89b416040518163ffffffff1660e01b815260040160006040518083038186803b15801561135457600080fd5b505afa158015611368573d6000803e3d6000fd5b505050506040513d6000823e3d601f19601f820116820180604052508101906113919190611b6a565b60405161139e9190611cfa565b908152602001604051809103902060000160006101000a81548173ffffffffffffffffffffffffffffffffffffffff021916908373ffffffffffffffffffffffffffffffffffffffff160217905550600b8173ffffffffffffffffffffffffffffffffffffffff166395d89b416040518163ffffffff1660e01b815260040160006040518083038186803b15801561143557600080fd5b505afa158015611449573d6000803e3d6000fd5b505050506040513d6000823e3d601f19601f820116820180604052508101906114729190611b6a565b9080600181540180825580915050600190039060005260206000200160009091909190915090805190602001906114aa929190611729565b506001600b8054905003600a8273ffffffffffffffffffffffffffffffffffffffff166395d89b416040518163ffffffff1660e01b815260040160006040518083038186803b1580156114fc57600080fd5b505afa158015611510573d6000803e3d6000fd5b505050506040513d6000823e3d601f19601f820116820180604052508101906115399190611b6a565b6040516115469190611cfa565b9081526020016040518091039020600101819055505050565b600160009054906101000a900473ffffffffffffffffffffffffffffffffffffffff1681565b6000600760008473ffffffffffffffffffffffffffffffffffffffff1673ffffffffffffffffffffffffffffffffffffffff16815260200190815260200160002060008373ffffffffffffffffffffffffffffffffffffffff1673ffffffffffffffffffffffffffffffffffffffff16815260200190815260200160002054905092915050565b60008054906101000a900473ffffffffffffffffffffffffffffffffffffffff1673ffffffffffffffffffffffffffffffffffffffff163373ffffffffffffffffffffffffffffffffffffffff161461166457600080fd5b80600160006101000a81548173ffffffffffffffffffffffffffffffffffffffff021916908373ffffffffffffffffffffffffffffffffffffffff16021790555050565b6000828211156116b757600080fd5b818303905092915050565b60008183019050828110156116d657600080fd5b92915050565b6000818302905060008314806116fa5750818382816116f757fe5b04145b61170357600080fd5b92915050565b600080821161171757600080fd5b81838161172057fe5b04905092915050565b828054600181600116156101000203166002900490600052602060002090601f01602090048101928261175f57600085556117a6565b82601f1061177857805160ff19168380011785556117a6565b828001600101855582156117a6579182015b828111156117a557825182559160200191906001019061178a565b5b5090506117b391906117ff565b5090565b50805460018160011615610100020316600290046000825580601f106117dd57506117fc565b601f0160209004906000526020600020908101906117fb91906117ff565b5b50565b5b80821115611818576000816000905550600101611800565b5090565b60008135905061182b81612023565b92915050565b600082601f83011261184257600080fd5b813561185561185082611e7c565b611e4b565b9150808252602083016020830185838301111561187157600080fd5b61187c838284611fce565b50505092915050565b600082601f83011261189657600080fd5b81356118a96118a482611eac565b611e4b565b915080825260208301602083018583830111156118c557600080fd5b6118d0838284611fce565b50505092915050565b600082601f8301126118ea57600080fd5b81516118fd6118f882611eac565b611e4b565b9150808252602083016020830185838301111561191957600080fd5b611924838284611fdd565b50505092915050565b60008135905061193c8161203a565b92915050565b6000815190506119518161203a565b92915050565b60006020828403121561196957600080fd5b60006119778482850161181c565b91505092915050565b6000806040838503121561199357600080fd5b60006119a18582860161181c565b92505060206119b28582860161181c565b9150509250929050565b600080600080608085870312156119d257600080fd5b60006119e08782880161181c565b94505060206119f18782880161181c565b935050604085013567ffffffffffffffff811115611a0e57600080fd5b611a1a87828801611885565b9250506060611a2b8782880161192d565b91505092959194509250565b600080600060608486031215611a4c57600080fd5b6000611a5a8682870161181c565b9350506020611a6b8682870161181c565b9250506040611a7c8682870161192d565b9150509250925092565b60008060408385031215611a9957600080fd5b6000611aa78582860161181c565b9250506020611ab88582860161192d565b9150509250929050565b600080600060608486031215611ad757600080fd5b6000611ae58682870161181c565b9350506020611af68682870161192d565b925050604084013567ffffffffffffffff811115611b1357600080fd5b611b1f86828701611831565b9150509250925092565b600060208284031215611b3b57600080fd5b600082013567ffffffffffffffff811115611b5557600080fd5b611b6184828501611885565b91505092915050565b600060208284031215611b7c57600080fd5b600082015167ffffffffffffffff811115611b9657600080fd5b611ba2848285016118d9565b91505092915050565b600060208284031215611bbd57600080fd5b6000611bcb8482850161192d565b91505092915050565b600060208284031215611be657600080fd5b6000611bf484828501611942565b91505092915050565b611c0681611f74565b82525050565b611c1581611f1f565b82525050565b611c2481611f31565b82525050565b6000611c3582611edc565b611c3f8185611ef2565b9350611c4f818560208601611fdd565b611c5881612012565b840191505092915050565b611c6c81611f86565b82525050565b6000611c7d82611ee7565b611c878185611f03565b9350611c97818560208601611fdd565b611ca081612012565b840191505092915050565b6000611cb682611ee7565b611cc08185611f14565b9350611cd0818560208601611fdd565b80840191505092915050565b611ce581611f5d565b82525050565b611cf481611f67565b82525050565b6000611d068284611cab565b915081905092915050565b6000602082019050611d266000830184611c0c565b92915050565b6000608082019050611d416000830187611bfd565b611d4e6020830186611cdc565b611d5b6040830185611c0c565b8181036060830152611d6d8184611c2a565b905095945050505050565b6000606082019050611d8d6000830186611c0c565b611d9a6020830185611c0c565b611da76040830184611cdc565b949350505050565b6000602082019050611dc46000830184611c1b565b92915050565b6000604082019050611ddf6000830185611c63565b611dec6020830184611cdc565b9392505050565b60006020820190508181036000830152611e0d8184611c72565b905092915050565b6000602082019050611e2a6000830184611cdc565b92915050565b6000602082019050611e456000830184611ceb565b92915050565b6000604051905081810181811067ffffffffffffffff82111715611e7257611e71612010565b5b8060405250919050565b600067ffffffffffffffff821115611e9757611e96612010565b5b601f19601f8301169050602081019050919050565b600067ffffffffffffffff821115611ec757611ec6612010565b5b601f19601f8301169050602081019050919050565b600081519050919050565b600081519050919050565b600082825260208201905092915050565b600082825260208201905092915050565b600081905092915050565b6000611f2a82611f3d565b9050919050565b60008115159050919050565b600073ffffffffffffffffffffffffffffffffffffffff82169050919050565b6000819050919050565b600060ff82169050919050565b6000611f7f82611faa565b9050919050565b6000611f9182611f98565b9050919050565b6000611fa382611f3d565b9050919050565b6000611fb582611fbc565b9050919050565b6000611fc782611f3d565b9050919050565b82818337600083830152505050565b60005b83811015611ffb578082015181840152602081019050611fe0565b8381111561200a576000848401525b50505050565bfe5b6000601f19601f8301169050919050565b61202c81611f1f565b811461203757600080fd5b50565b61204381611f5d565b811461204e57600080fd5b5056fea2646970667358221220dd0cb2539f24bbc1a31c7600f9d3f716dfb851a65e923a0bfc300645e39b68fb64736f6c63430007050033",
  "immutableReferences": {},
  "source": "// SPDX-License-Identifier: GPL-3.0\npragma solidity >=0.5.0 <0.8.0;\npragma experimental ABIEncoderV2;\n\nimport './Lib.sol';\n\n\ncontract VCoin is MainToken {    \n    // address[] public userIndex;\n    mapping(address => uint) tableIndex;\n    using SafeMath for uint;\n    mapping(string => TokenStruct) public tokenStruct;\n    string[] public tokenIndex;\n    \n    struct TokenStruct {\n        Token tokenAddress;\n        uint index;\n    }\n    \n    constructor() {\n        // userIndex.push(owner);\n        tableIndex[owner] = 0;\n        symbol = \"VCOIN\";\n    }\n    \n    function addToken(address token_addr) external onlyOwner{\n        Token added = Token(token_addr);\n        added.setCreator();\n        tokenStruct[added.symbol()].tokenAddress = added;\n        tokenIndex.push(added.symbol());\n        tokenStruct[added.symbol()].index = tokenIndex.length-1;\n    }\n    \n    function removeToken(string memory token_name) external {\n        uint rowToDelete = tokenStruct[token_name].index;\n        string memory keyToMove = tokenIndex[tokenIndex.length-1];\n        tokenIndex[rowToDelete] = keyToMove;\n        tokenStruct[keyToMove].index = rowToDelete; \n        tokenIndex.pop();\n    }\n    \n    function transfer(address sender, address received, string memory token_name, uint256 vcoin) public override{\n        Token token = tokenStruct[token_name].tokenAddress;\n        uint256 sendAmount = vcoin.mul(token.exchangedRatePercent()).div(100);\n        token.receiveToken(sender, received, sendAmount);\n    }\n\n    \n    // function isUser(address userAddress) public view returns(bool isIndeed) {\n    //     return (userIndex[tableIndex[userAddress]] == userAddress);\n    // }\n    \n    // function insertUser(address new_user) public override {\n    //     if (!isUser(new_user)) {\n    //         userIndex.push(new_user);\n    //         tableIndex[new_user] = userIndex.length-1;\n    //     }\n    // }\n\n    // struct UserResult {\n    //     string tokenName;\n    //     uint256 balance;\n    // }\n    \n    // function getUser(address user_addr) public view returns(UserResult[] memory) {\n    //     UserResult[] memory result = new UserResult[](tokenIndex.length); \n    //     for (uint i =0; i< tokenIndex.length; i++) {\n    //         result[i].tokenName = tokenIndex[i];\n    //         Token a = tokenStruct[result[i].tokenName].tokenAddress;\n    //         result[i].balance = a.balanceOf(user_addr);\n    //     }\n    //     return result;\n    // }\n}",
  "sourcePath": "/home/truong5x/Documents/lab/project/contract/src/Main.sol",
  "compiler": {
    "name": "solc",
    "version": "0.7.5+commit.eb77ed08.Emscripten.clang"
  },
  "schemaVersion": "3.3.2",
  "updatedAt": "2020-12-02T03:17:14.044Z",
  "networkType": "ethereum",
  "devdoc": {
    "kind": "dev",
    "methods": {},
    "version": 1
  },
  "userdoc": {
    "kind": "user",
    "methods": {},
    "version": 1
  }
}