{
  "contractName": "VCoin",
  "abi": [
    {
      "inputs": [],
      "stateMutability": "nonpayable",
      "type": "constructor"
    },
    {
      "anonymous": false,
      "inputs": [
        {
          "indexed": true,
          "internalType": "address",
          "name": "tokenOwner",
          "type": "address"
        },
        {
          "indexed": true,
          "internalType": "address",
          "name": "spender",
          "type": "address"
        },
        {
          "indexed": false,
          "internalType": "uint256",
          "name": "tokens",
          "type": "uint256"
        }
      ],
      "name": "Approval",
      "type": "event"
    },
    {
      "anonymous": false,
      "inputs": [
        {
          "indexed": true,
          "internalType": "address",
          "name": "_from",
          "type": "address"
        },
        {
          "indexed": true,
          "internalType": "address",
          "name": "_to",
          "type": "address"
        }
      ],
      "name": "OwnershipTransferred",
      "type": "event"
    },
    {
      "anonymous": false,
      "inputs": [
        {
          "indexed": true,
          "internalType": "address",
          "name": "from",
          "type": "address"
        },
        {
          "indexed": true,
          "internalType": "address",
          "name": "to",
          "type": "address"
        },
        {
          "indexed": false,
          "internalType": "uint256",
          "name": "tokens",
          "type": "uint256"
        }
      ],
      "name": "Transfer",
      "type": "event"
    },
    {
      "inputs": [],
      "name": "_totalSupply",
      "outputs": [
        {
          "internalType": "uint256",
          "name": "",
          "type": "uint256"
        }
      ],
      "stateMutability": "view",
      "type": "function",
      "constant": true
    },
    {
      "inputs": [],
      "name": "acceptOwnership",
      "outputs": [],
      "stateMutability": "nonpayable",
      "type": "function"
    },
    {
      "inputs": [
        {
          "internalType": "address",
          "name": "tokenOwner",
          "type": "address"
        },
        {
          "internalType": "address",
          "name": "spender",
          "type": "address"
        }
      ],
      "name": "allowance",
      "outputs": [
        {
          "internalType": "uint256",
          "name": "remaining",
          "type": "uint256"
        }
      ],
      "stateMutability": "view",
      "type": "function",
      "constant": true
    },
    {
      "inputs": [
        {
          "internalType": "address",
          "name": "spender",
          "type": "address"
        },
        {
          "internalType": "uint256",
          "name": "tokens",
          "type": "uint256"
        }
      ],
      "name": "approve",
      "outputs": [
        {
          "internalType": "bool",
          "name": "success",
          "type": "bool"
        }
      ],
      "stateMutability": "nonpayable",
      "type": "function"
    },
    {
      "inputs": [
        {
          "internalType": "address",
          "name": "spender",
          "type": "address"
        },
        {
          "internalType": "uint256",
          "name": "tokens",
          "type": "uint256"
        },
        {
          "internalType": "bytes",
          "name": "data",
          "type": "bytes"
        }
      ],
      "name": "approveAndCall",
      "outputs": [
        {
          "internalType": "bool",
          "name": "success",
          "type": "bool"
        }
      ],
      "stateMutability": "nonpayable",
      "type": "function"
    },
    {
      "inputs": [
        {
          "internalType": "address",
          "name": "tokenOwner",
          "type": "address"
        }
      ],
      "name": "balanceOf",
      "outputs": [
        {
          "internalType": "uint256",
          "name": "balance",
          "type": "uint256"
        }
      ],
      "stateMutability": "view",
      "type": "function",
      "constant": true
    },
    {
      "inputs": [],
      "name": "decimals",
      "outputs": [
        {
          "internalType": "uint8",
          "name": "",
          "type": "uint8"
        }
      ],
      "stateMutability": "view",
      "type": "function",
      "constant": true
    },
    {
      "inputs": [],
      "name": "name",
      "outputs": [
        {
          "internalType": "string",
          "name": "",
          "type": "string"
        }
      ],
      "stateMutability": "view",
      "type": "function",
      "constant": true
    },
    {
      "inputs": [],
      "name": "newOwner",
      "outputs": [
        {
          "internalType": "address",
          "name": "",
          "type": "address"
        }
      ],
      "stateMutability": "view",
      "type": "function",
      "constant": true
    },
    {
      "inputs": [],
      "name": "owner",
      "outputs": [
        {
          "internalType": "address",
          "name": "",
          "type": "address"
        }
      ],
      "stateMutability": "view",
      "type": "function",
      "constant": true
    },
    {
      "inputs": [],
      "name": "swapFee",
      "outputs": [
        {
          "internalType": "uint256",
          "name": "",
          "type": "uint256"
        }
      ],
      "stateMutability": "view",
      "type": "function",
      "constant": true
    },
    {
      "inputs": [],
      "name": "symbol",
      "outputs": [
        {
          "internalType": "string",
          "name": "",
          "type": "string"
        }
      ],
      "stateMutability": "view",
      "type": "function",
      "constant": true
    },
    {
      "inputs": [
        {
          "internalType": "uint256",
          "name": "",
          "type": "uint256"
        }
      ],
      "name": "tokenIndex",
      "outputs": [
        {
          "internalType": "string",
          "name": "",
          "type": "string"
        }
      ],
      "stateMutability": "view",
      "type": "function",
      "constant": true
    },
    {
      "inputs": [
        {
          "internalType": "string",
          "name": "",
          "type": "string"
        }
      ],
      "name": "tokenStruct",
      "outputs": [
        {
          "internalType": "contract Token",
          "name": "tokenAddress",
          "type": "address"
        },
        {
          "internalType": "uint256",
          "name": "index",
          "type": "uint256"
        }
      ],
      "stateMutability": "view",
      "type": "function",
      "constant": true
    },
    {
      "inputs": [],
      "name": "totalSupply",
      "outputs": [
        {
          "internalType": "uint256",
          "name": "a",
          "type": "uint256"
        }
      ],
      "stateMutability": "view",
      "type": "function",
      "constant": true
    },
    {
      "inputs": [
        {
          "internalType": "address",
          "name": "from",
          "type": "address"
        },
        {
          "internalType": "address",
          "name": "to",
          "type": "address"
        },
        {
          "internalType": "uint256",
          "name": "tokens",
          "type": "uint256"
        }
      ],
      "name": "transferFrom",
      "outputs": [
        {
          "internalType": "bool",
          "name": "success",
          "type": "bool"
        }
      ],
      "stateMutability": "nonpayable",
      "type": "function"
    },
    {
      "inputs": [
        {
          "internalType": "address",
          "name": "_newOwner",
          "type": "address"
        }
      ],
      "name": "transferOwnership",
      "outputs": [],
      "stateMutability": "nonpayable",
      "type": "function"
    },
    {
      "inputs": [
        {
          "internalType": "address",
          "name": "token_addr",
          "type": "address"
        }
      ],
      "name": "addToken",
      "outputs": [],
      "stateMutability": "nonpayable",
      "type": "function"
    },
    {
      "inputs": [
        {
          "internalType": "string",
          "name": "token_name",
          "type": "string"
        }
      ],
      "name": "removeToken",
      "outputs": [],
      "stateMutability": "nonpayable",
      "type": "function"
    },
    {
      "inputs": [
        {
          "internalType": "string",
          "name": "token_name",
          "type": "string"
        }
      ],
      "name": "isToken",
      "outputs": [
        {
          "internalType": "bool",
          "name": "",
          "type": "bool"
        }
      ],
      "stateMutability": "view",
      "type": "function",
      "constant": true
    },
    {
      "inputs": [
        {
          "internalType": "address",
          "name": "sender",
          "type": "address"
        },
        {
          "internalType": "address",
          "name": "received",
          "type": "address"
        },
        {
          "internalType": "string",
          "name": "token_name",
          "type": "string"
        },
        {
          "internalType": "uint256",
          "name": "vcoin",
          "type": "uint256"
        }
      ],
      "name": "transfer",
      "outputs": [],
      "stateMutability": "nonpayable",
      "type": "function"
    },
    {
      "inputs": [
        {
          "internalType": "address",
          "name": "to",
          "type": "address"
        },
        {
          "internalType": "uint256",
          "name": "tokens",
          "type": "uint256"
        }
      ],
      "name": "transfer",
      "outputs": [
        {
          "internalType": "bool",
          "name": "success",
          "type": "bool"
        }
      ],
      "stateMutability": "nonpayable",
      "type": "function"
    },
    {
      "inputs": [],
      "name": "deleteAllToken",
      "outputs": [],
      "stateMutability": "nonpayable",
      "type": "function"
    }
  ],
  "bytecode": "0x60806040526207a1206008553480156200001857600080fd5b50336000806101000a81548173ffffffffffffffffffffffffffffffffffffffff021916908373ffffffffffffffffffffffffffffffffffffffff1602179055506006600460006101000a81548160ff021916908360ff160217905550600460009054906101000a900460ff1660ff16600a0a620f424002600581905550600554600660008060009054906101000a900473ffffffffffffffffffffffffffffffffffffffff1673ffffffffffffffffffffffffffffffffffffffff1673ffffffffffffffffffffffffffffffffffffffff1681526020019081526020016000208190555060008054906101000a900473ffffffffffffffffffffffffffffffffffffffff1673ffffffffffffffffffffffffffffffffffffffff16600073ffffffffffffffffffffffffffffffffffffffff167fddf252ad1be2c89b69c2b068fc378daa952ba7f163c4a11628f55a4df523b3ef6005546040516200017f9190620002a2565b60405180910390a36040518060400160405280600581526020017f56434f494e00000000000000000000000000000000000000000000000000000081525060029080519060200190620001d4929190620001db565b50620002c9565b828054600181600116156101000203166002900490600052602060002090601f0160209004810192826200021357600085556200025f565b82601f106200022e57805160ff19168380011785556200025f565b828001600101855582156200025f579182015b828111156200025e57825182559160200191906001019062000241565b5b5090506200026e919062000272565b5090565b5b808211156200028d57600081600090555060010162000273565b5090565b6200029c81620002bf565b82525050565b6000602082019050620002b9600083018462000291565b92915050565b6000819050919050565b6123d180620002d96000396000f3fe608060405234801561001057600080fd5b506004361061014d5760003560e01c806354cf2aeb116100c3578063ac44c64b1161007c578063ac44c64b146103b7578063cae9ca51146103c1578063d48bfca7146103f1578063d4ee1d901461040d578063dd62ed3e1461042b578063f2fde38b1461045b5761014d565b806354cf2aeb146102f357806370a082311461031157806379ba5097146103415780638da5cb5b1461034b57806395d89b4114610369578063a9059cbb146103875761014d565b806323b872dd1161011557806323b872dd1461020a5780632e0274a21461023a578063313ce567146102565780633d4286fb146102745780633eaaf86b146102a457806344b69b92146102c25761014d565b80630583e9f81461015257806306fdde0314610182578063095ea7b3146101a057806318160ddd146101d05780631f455922146101ee575b600080fd5b61016c60048036038101906101679190611e19565b610477565b6040516101799190612106565b60405180910390f35b61018a610533565b6040516101979190612106565b60405180910390f35b6101ba60048036038101906101b59190611ccb565b6105d1565b6040516101c791906120c2565b60405180910390f35b6101d86106c3565b6040516101e59190612128565b60405180910390f35b61020860048036038101906102039190611d97565b61070e565b005b610224600480360381019061021f9190611c7c565b610870565b60405161023191906120c2565b60405180910390f35b610254600480360381019061024f9190611c01565b610b1b565b005b61025e610c7f565b60405161026b9190612143565b60405180910390f35b61028e60048036038101906102899190611d97565b610c92565b60405161029b91906120c2565b60405180910390f35b6102ac610d08565b6040516102b99190612128565b60405180910390f35b6102dc60048036038101906102d79190611d97565b610d0e565b6040516102ea9291906120dd565b60405180910390f35b6102fb610d68565b6040516103089190612128565b60405180910390f35b61032b60048036038101906103269190611b9c565b610d6e565b6040516103389190612128565b60405180910390f35b610349610db7565b005b610353610f53565b6040516103609190612024565b60405180910390f35b610371610f77565b60405161037e9190612106565b60405180910390f35b6103a1600480360381019061039c9190611ccb565b611015565b6040516103ae91906120c2565b60405180910390f35b6103bf6111b0565b005b6103db60048036038101906103d69190611d07565b6111c0565b6040516103e891906120c2565b60405180910390f35b61040b60048036038101906104069190611b9c565b611324565b005b61041561174a565b6040516104229190612024565b60405180910390f35b61044560048036038101906104409190611bc5565b611770565b6040516104529190612128565b60405180910390f35b61047560048036038101906104709190611b9c565b6117f7565b005b600a818154811061048757600080fd5b906000526020600020016000915090508054600181600116156101000203166002900480601f01602080910402602001604051908101604052809291908181526020018280546001816001161561010002031660029004801561052b5780601f106105005761010080835404028352916020019161052b565b820191906000526020600020905b81548152906001019060200180831161050e57829003601f168201915b505050505081565b60038054600181600116156101000203166002900480601f0160208091040260200160405190810160405280929190818152602001828054600181600116156101000203166002900480156105c95780601f1061059e576101008083540402835291602001916105c9565b820191906000526020600020905b8154815290600101906020018083116105ac57829003601f168201915b505050505081565b600081600760003373ffffffffffffffffffffffffffffffffffffffff1673ffffffffffffffffffffffffffffffffffffffff16815260200190815260200160002060008573ffffffffffffffffffffffffffffffffffffffff1673ffffffffffffffffffffffffffffffffffffffff168152602001908152602001600020819055508273ffffffffffffffffffffffffffffffffffffffff163373ffffffffffffffffffffffffffffffffffffffff167f8c5be1e5ebec7d5bd14f71427d1e84f3dd0314c0f7b2291e5b200ac8c7c3b925846040516106b19190612128565b60405180910390a36001905092915050565b6000600660008073ffffffffffffffffffffffffffffffffffffffff1673ffffffffffffffffffffffffffffffffffffffff1681526020019081526020016000205460055403905090565b6000600982604051610720919061200d565b90815260200160405180910390206001015490506060600a6001600a80549050038154811061074b57fe5b906000526020600020018054600181600116156101000203166002900480601f0160208091040260200160405190810160405280929190818152602001828054600181600116156101000203166002900480156107e95780601f106107be576101008083540402835291602001916107e9565b820191906000526020600020905b8154815290600101906020018083116107cc57829003601f168201915b5050505050905080600a83815481106107fe57fe5b90600052602060002001908051906020019061081b929190611914565b508160098260405161082d919061200d565b908152602001604051809103902060010181905550600a80548061084d57fe5b60019003818190600052602060002001600061086991906119a2565b9055505050565b60006108c482600660008773ffffffffffffffffffffffffffffffffffffffff1673ffffffffffffffffffffffffffffffffffffffff1681526020019081526020016000205461189390919063ffffffff16565b600660008673ffffffffffffffffffffffffffffffffffffffff1673ffffffffffffffffffffffffffffffffffffffff1681526020019081526020016000208190555061099682600760008773ffffffffffffffffffffffffffffffffffffffff1673ffffffffffffffffffffffffffffffffffffffff16815260200190815260200160002060003373ffffffffffffffffffffffffffffffffffffffff1673ffffffffffffffffffffffffffffffffffffffff1681526020019081526020016000205461189390919063ffffffff16565b600760008673ffffffffffffffffffffffffffffffffffffffff1673ffffffffffffffffffffffffffffffffffffffff16815260200190815260200160002060003373ffffffffffffffffffffffffffffffffffffffff1673ffffffffffffffffffffffffffffffffffffffff16815260200190815260200160002081905550610a6882600660008673ffffffffffffffffffffffffffffffffffffffff1673ffffffffffffffffffffffffffffffffffffffff168152602001908152602001600020546118ad90919063ffffffff16565b600660008573ffffffffffffffffffffffffffffffffffffffff1673ffffffffffffffffffffffffffffffffffffffff168152602001908152602001600020819055508273ffffffffffffffffffffffffffffffffffffffff168473ffffffffffffffffffffffffffffffffffffffff167fddf252ad1be2c89b69c2b068fc378daa952ba7f163c4a11628f55a4df523b3ef84604051610b089190612128565b60405180910390a3600190509392505050565b6000600983604051610b2d919061200d565b908152602001604051809103902060000160009054906101000a900473ffffffffffffffffffffffffffffffffffffffff1690506000610c066064610bf88473ffffffffffffffffffffffffffffffffffffffff16637cb2f95d6040518163ffffffff1660e01b815260040160206040518083038186803b158015610bb157600080fd5b505afa158015610bc5573d6000803e3d6000fd5b505050506040513d601f19601f82011682018060405250810190610be99190611e42565b866118c790919063ffffffff16565b6118f490919063ffffffff16565b90508173ffffffffffffffffffffffffffffffffffffffff16634ec109f48787846040518463ffffffff1660e01b8152600401610c459392919061208b565b600060405180830381600087803b158015610c5f57600080fd5b505af1158015610c73573d6000803e3d6000fd5b50505050505050505050565b600460009054906101000a900460ff1681565b600080600a805490501415610caa5760009050610d03565b600a600983604051610cbc919061200d565b90815260200160405180910390206001015481548110610cd857fe5b90600052602060002001604051610cef9190611ff6565b604051809103902082805190602001201490505b919050565b60055481565b6009818051602081018201805184825260208301602085012081835280955050505050506000915090508060000160009054906101000a900473ffffffffffffffffffffffffffffffffffffffff16908060010154905082565b60085481565b6000600660008373ffffffffffffffffffffffffffffffffffffffff1673ffffffffffffffffffffffffffffffffffffffff168152602001908152602001600020549050919050565b600160009054906101000a900473ffffffffffffffffffffffffffffffffffffffff1673ffffffffffffffffffffffffffffffffffffffff163373ffffffffffffffffffffffffffffffffffffffff1614610e1157600080fd5b600160009054906101000a900473ffffffffffffffffffffffffffffffffffffffff1673ffffffffffffffffffffffffffffffffffffffff1660008054906101000a900473ffffffffffffffffffffffffffffffffffffffff1673ffffffffffffffffffffffffffffffffffffffff167f8be0079c531659141344cd1fd0a4f28419497f9722a3daafe3b4186f6b6457e060405160405180910390a3600160009054906101000a900473ffffffffffffffffffffffffffffffffffffffff166000806101000a81548173ffffffffffffffffffffffffffffffffffffffff021916908373ffffffffffffffffffffffffffffffffffffffff1602179055506000600160006101000a81548173ffffffffffffffffffffffffffffffffffffffff021916908373ffffffffffffffffffffffffffffffffffffffff160217905550565b60008054906101000a900473ffffffffffffffffffffffffffffffffffffffff1681565b60028054600181600116156101000203166002900480601f01602080910402602001604051908101604052809291908181526020018280546001816001161561010002031660029004801561100d5780601f10610fe25761010080835404028352916020019161100d565b820191906000526020600020905b815481529060010190602001808311610ff057829003601f168201915b505050505081565b600061106982600660003373ffffffffffffffffffffffffffffffffffffffff1673ffffffffffffffffffffffffffffffffffffffff1681526020019081526020016000205461189390919063ffffffff16565b600660003373ffffffffffffffffffffffffffffffffffffffff1673ffffffffffffffffffffffffffffffffffffffff168152602001908152602001600020819055506110fe82600660008673ffffffffffffffffffffffffffffffffffffffff1673ffffffffffffffffffffffffffffffffffffffff168152602001908152602001600020546118ad90919063ffffffff16565b600660008573ffffffffffffffffffffffffffffffffffffffff1673ffffffffffffffffffffffffffffffffffffffff168152602001908152602001600020819055508273ffffffffffffffffffffffffffffffffffffffff163373ffffffffffffffffffffffffffffffffffffffff167fddf252ad1be2c89b69c2b068fc378daa952ba7f163c4a11628f55a4df523b3ef8460405161119e9190612128565b60405180910390a36001905092915050565b600a60006111be91906119ea565b565b600082600760003373ffffffffffffffffffffffffffffffffffffffff1673ffffffffffffffffffffffffffffffffffffffff16815260200190815260200160002060008673ffffffffffffffffffffffffffffffffffffffff1673ffffffffffffffffffffffffffffffffffffffff168152602001908152602001600020819055508373ffffffffffffffffffffffffffffffffffffffff163373ffffffffffffffffffffffffffffffffffffffff167f8c5be1e5ebec7d5bd14f71427d1e84f3dd0314c0f7b2291e5b200ac8c7c3b925856040516112a09190612128565b60405180910390a38373ffffffffffffffffffffffffffffffffffffffff16638f4ffcb1338530866040518563ffffffff1660e01b81526004016112e7949392919061203f565b600060405180830381600087803b15801561130157600080fd5b505af1158015611315573d6000803e3d6000fd5b50505050600190509392505050565b60008054906101000a900473ffffffffffffffffffffffffffffffffffffffff1673ffffffffffffffffffffffffffffffffffffffff163373ffffffffffffffffffffffffffffffffffffffff161461137c57600080fd5b60008190508073ffffffffffffffffffffffffffffffffffffffff166359f121a86040518163ffffffff1660e01b8152600401600060405180830381600087803b1580156113c957600080fd5b505af11580156113dd573d6000803e3d6000fd5b505050503073ffffffffffffffffffffffffffffffffffffffff16633d4286fb8273ffffffffffffffffffffffffffffffffffffffff166395d89b416040518163ffffffff1660e01b815260040160006040518083038186803b15801561144357600080fd5b505afa158015611457573d6000803e3d6000fd5b505050506040513d6000823e3d601f19601f820116820180604052508101906114809190611dd8565b6040518263ffffffff1660e01b815260040161149c9190612106565b60206040518083038186803b1580156114b457600080fd5b505afa1580156114c8573d6000803e3d6000fd5b505050506040513d601f19601f820116820180604052508101906114ec9190611d6e565b156114f657600080fd5b8060098273ffffffffffffffffffffffffffffffffffffffff166395d89b416040518163ffffffff1660e01b815260040160006040518083038186803b15801561153f57600080fd5b505afa158015611553573d6000803e3d6000fd5b505050506040513d6000823e3d601f19601f8201168201806040525081019061157c9190611dd8565b604051611589919061200d565b908152602001604051809103902060000160006101000a81548173ffffffffffffffffffffffffffffffffffffffff021916908373ffffffffffffffffffffffffffffffffffffffff160217905550600a8173ffffffffffffffffffffffffffffffffffffffff166395d89b416040518163ffffffff1660e01b815260040160006040518083038186803b15801561162057600080fd5b505afa158015611634573d6000803e3d6000fd5b505050506040513d6000823e3d601f19601f8201168201806040525081019061165d9190611dd8565b908060018154018082558091505060019003906000526020600020016000909190919091509080519060200190611695929190611914565b506001600a805490500360098273ffffffffffffffffffffffffffffffffffffffff166395d89b416040518163ffffffff1660e01b815260040160006040518083038186803b1580156116e757600080fd5b505afa1580156116fb573d6000803e3d6000fd5b505050506040513d6000823e3d601f19601f820116820180604052508101906117249190611dd8565b604051611731919061200d565b9081526020016040518091039020600101819055505050565b600160009054906101000a900473ffffffffffffffffffffffffffffffffffffffff1681565b6000600760008473ffffffffffffffffffffffffffffffffffffffff1673ffffffffffffffffffffffffffffffffffffffff16815260200190815260200160002060008373ffffffffffffffffffffffffffffffffffffffff1673ffffffffffffffffffffffffffffffffffffffff16815260200190815260200160002054905092915050565b60008054906101000a900473ffffffffffffffffffffffffffffffffffffffff1673ffffffffffffffffffffffffffffffffffffffff163373ffffffffffffffffffffffffffffffffffffffff161461184f57600080fd5b80600160006101000a81548173ffffffffffffffffffffffffffffffffffffffff021916908373ffffffffffffffffffffffffffffffffffffffff16021790555050565b6000828211156118a257600080fd5b818303905092915050565b60008183019050828110156118c157600080fd5b92915050565b6000818302905060008314806118e55750818382816118e257fe5b04145b6118ee57600080fd5b92915050565b600080821161190257600080fd5b81838161190b57fe5b04905092915050565b828054600181600116156101000203166002900490600052602060002090601f01602090048101928261194a5760008555611991565b82601f1061196357805160ff1916838001178555611991565b82800160010185558215611991579182015b82811115611990578251825591602001919060010190611975565b5b50905061199e9190611a0b565b5090565b50805460018160011615610100020316600290046000825580601f106119c857506119e7565b601f0160209004906000526020600020908101906119e69190611a0b565b5b50565b5080546000825590600052602060002090810190611a089190611a28565b50565b5b80821115611a24576000816000905550600101611a0c565b5090565b5b80821115611a485760008181611a3f91906119a2565b50600101611a29565b5090565b600081359050611a5b81612356565b92915050565b600081519050611a708161236d565b92915050565b600082601f830112611a8757600080fd5b8135611a9a611a958261218f565b61215e565b91508082526020830160208301858383011115611ab657600080fd5b611ac1838284612301565b50505092915050565b600082601f830112611adb57600080fd5b8135611aee611ae9826121bf565b61215e565b91508082526020830160208301858383011115611b0a57600080fd5b611b15838284612301565b50505092915050565b600082601f830112611b2f57600080fd5b8151611b42611b3d826121bf565b61215e565b91508082526020830160208301858383011115611b5e57600080fd5b611b69838284612310565b50505092915050565b600081359050611b8181612384565b92915050565b600081519050611b9681612384565b92915050565b600060208284031215611bae57600080fd5b6000611bbc84828501611a4c565b91505092915050565b60008060408385031215611bd857600080fd5b6000611be685828601611a4c565b9250506020611bf785828601611a4c565b9150509250929050565b60008060008060808587031215611c1757600080fd5b6000611c2587828801611a4c565b9450506020611c3687828801611a4c565b935050604085013567ffffffffffffffff811115611c5357600080fd5b611c5f87828801611aca565b9250506060611c7087828801611b72565b91505092959194509250565b600080600060608486031215611c9157600080fd5b6000611c9f86828701611a4c565b9350506020611cb086828701611a4c565b9250506040611cc186828701611b72565b9150509250925092565b60008060408385031215611cde57600080fd5b6000611cec85828601611a4c565b9250506020611cfd85828601611b72565b9150509250929050565b600080600060608486031215611d1c57600080fd5b6000611d2a86828701611a4c565b9350506020611d3b86828701611b72565b925050604084013567ffffffffffffffff811115611d5857600080fd5b611d6486828701611a76565b9150509250925092565b600060208284031215611d8057600080fd5b6000611d8e84828501611a61565b91505092915050565b600060208284031215611da957600080fd5b600082013567ffffffffffffffff811115611dc357600080fd5b611dcf84828501611aca565b91505092915050565b600060208284031215611dea57600080fd5b600082015167ffffffffffffffff811115611e0457600080fd5b611e1084828501611b1e565b91505092915050565b600060208284031215611e2b57600080fd5b6000611e3984828501611b72565b91505092915050565b600060208284031215611e5457600080fd5b6000611e6284828501611b87565b91505092915050565b611e74816122a7565b82525050565b611e8381612252565b82525050565b611e9281612264565b82525050565b6000611ea382612204565b611ead818561221a565b9350611ebd818560208601612310565b611ec681612345565b840191505092915050565b600081546001811660008114611eee5760018114611f1357611f57565b607f6002830416611eff818761222b565b955060ff1983168652808601935050611f57565b60028204611f21818761222b565b9550611f2c856121ef565b60005b82811015611f4e57815481890152600182019150602081019050611f2f565b82880195505050505b505092915050565b611f68816122b9565b82525050565b6000611f798261220f565b611f838185612236565b9350611f93818560208601612310565b611f9c81612345565b840191505092915050565b6000611fb28261220f565b611fbc8185612247565b9350611fcc818560208601612310565b80840191505092915050565b611fe181612290565b82525050565b611ff08161229a565b82525050565b60006120028284611ed1565b915081905092915050565b60006120198284611fa7565b915081905092915050565b60006020820190506120396000830184611e7a565b92915050565b60006080820190506120546000830187611e6b565b6120616020830186611fd8565b61206e6040830185611e7a565b81810360608301526120808184611e98565b905095945050505050565b60006060820190506120a06000830186611e7a565b6120ad6020830185611e7a565b6120ba6040830184611fd8565b949350505050565b60006020820190506120d76000830184611e89565b92915050565b60006040820190506120f26000830185611f5f565b6120ff6020830184611fd8565b9392505050565b600060208201905081810360008301526121208184611f6e565b905092915050565b600060208201905061213d6000830184611fd8565b92915050565b60006020820190506121586000830184611fe7565b92915050565b6000604051905081810181811067ffffffffffffffff8211171561218557612184612343565b5b8060405250919050565b600067ffffffffffffffff8211156121aa576121a9612343565b5b601f19601f8301169050602081019050919050565b600067ffffffffffffffff8211156121da576121d9612343565b5b601f19601f8301169050602081019050919050565b60008190508160005260206000209050919050565b600081519050919050565b600081519050919050565b600082825260208201905092915050565b600081905092915050565b600082825260208201905092915050565b600081905092915050565b600061225d82612270565b9050919050565b60008115159050919050565b600073ffffffffffffffffffffffffffffffffffffffff82169050919050565b6000819050919050565b600060ff82169050919050565b60006122b2826122dd565b9050919050565b60006122c4826122cb565b9050919050565b60006122d682612270565b9050919050565b60006122e8826122ef565b9050919050565b60006122fa82612270565b9050919050565b82818337600083830152505050565b60005b8381101561232e578082015181840152602081019050612313565b8381111561233d576000848401525b50505050565bfe5b6000601f19601f8301169050919050565b61235f81612252565b811461236a57600080fd5b50565b61237681612264565b811461238157600080fd5b50565b61238d81612290565b811461239857600080fd5b5056fea2646970667358221220c4fa99cf8cc44c2826e7f62480f88322cc5ac296d3dc5af525161d73dd53aea864736f6c63430007050033",
  "immutableReferences": {},
  "source": "// SPDX-License-Identifier: GPL-3.0\npragma solidity >=0.5.0 <0.8.0;\npragma experimental ABIEncoderV2;\n\nimport './Lib.sol';\n\n\ncontract VCoin is MainToken {    \n    using SafeMath for uint;\n    mapping(string => TokenStruct) public tokenStruct;\n    string[] public tokenIndex;\n    \n    struct TokenStruct {\n        Token tokenAddress;\n        uint index;\n    }\n    \n    constructor() {\n        symbol = \"VCOIN\";\n    }\n    \n    function addToken(address token_addr) external onlyOwner{\n        Token added = Token(token_addr);\n        added.setCreator();\n        require(!this.isToken(added.symbol()));\n        tokenStruct[added.symbol()].tokenAddress = added;\n        tokenIndex.push(added.symbol());\n        tokenStruct[added.symbol()].index = tokenIndex.length-1;\n    }\n    \n    function removeToken(string memory token_name) external {\n        uint rowToDelete = tokenStruct[token_name].index;\n        string memory keyToMove = tokenIndex[tokenIndex.length-1];\n        tokenIndex[rowToDelete] = keyToMove;\n        tokenStruct[keyToMove].index = rowToDelete; \n        tokenIndex.pop();\n    }\n    \n    function isToken(string memory token_name) public view returns (bool) {\n        if(tokenIndex.length == 0) return false;\n        return keccak256(bytes(token_name)) == keccak256(bytes(tokenIndex[tokenStruct[token_name].index]));\n    }\n    \n    function transfer(address sender, address received, string memory token_name, uint256 vcoin) public override{\n        Token token = tokenStruct[token_name].tokenAddress;\n        uint256 sendAmount = vcoin.mul(token.exchangedRatePercent()).div(100);\n        token.receiveToken(sender, received, sendAmount);\n    }\n    \n    function deleteAllToken() public {\n        delete tokenIndex;\n    }\n}",
  "sourcePath": "/home/truong5x/Documents/lab/project/contract/src/Main.sol",
  "compiler": {
    "name": "solc",
    "version": "0.7.5+commit.eb77ed08.Emscripten.clang"
  },
  "schemaVersion": "3.3.2",
  "updatedAt": "2020-12-02T15:19:59.607Z",
  "networkType": "ethereum",
  "devdoc": {
    "kind": "dev",
    "methods": {},
    "version": 1
  },
  "userdoc": {
    "kind": "user",
    "methods": {},
    "version": 1
  }
}