{
  "contractName": "VCoin",
  "abi": [
    {
      "inputs": [],
      "stateMutability": "nonpayable",
      "type": "constructor"
    },
    {
      "anonymous": false,
      "inputs": [
        {
          "indexed": true,
          "internalType": "address",
          "name": "tokenOwner",
          "type": "address"
        },
        {
          "indexed": true,
          "internalType": "address",
          "name": "spender",
          "type": "address"
        },
        {
          "indexed": false,
          "internalType": "uint256",
          "name": "tokens",
          "type": "uint256"
        }
      ],
      "name": "Approval",
      "type": "event"
    },
    {
      "anonymous": false,
      "inputs": [
        {
          "indexed": true,
          "internalType": "address",
          "name": "_from",
          "type": "address"
        },
        {
          "indexed": true,
          "internalType": "address",
          "name": "_to",
          "type": "address"
        }
      ],
      "name": "OwnershipTransferred",
      "type": "event"
    },
    {
      "anonymous": false,
      "inputs": [
        {
          "indexed": true,
          "internalType": "address",
          "name": "from",
          "type": "address"
        },
        {
          "indexed": true,
          "internalType": "address",
          "name": "to",
          "type": "address"
        },
        {
          "indexed": false,
          "internalType": "uint256",
          "name": "tokens",
          "type": "uint256"
        }
      ],
      "name": "Transfer",
      "type": "event"
    },
    {
      "inputs": [],
      "name": "_totalSupply",
      "outputs": [
        {
          "internalType": "uint256",
          "name": "",
          "type": "uint256"
        }
      ],
      "stateMutability": "view",
      "type": "function",
      "constant": true
    },
    {
      "inputs": [],
      "name": "acceptOwnership",
      "outputs": [],
      "stateMutability": "nonpayable",
      "type": "function"
    },
    {
      "inputs": [
        {
          "internalType": "address",
          "name": "tokenOwner",
          "type": "address"
        },
        {
          "internalType": "address",
          "name": "spender",
          "type": "address"
        }
      ],
      "name": "allowance",
      "outputs": [
        {
          "internalType": "uint256",
          "name": "remaining",
          "type": "uint256"
        }
      ],
      "stateMutability": "view",
      "type": "function",
      "constant": true
    },
    {
      "inputs": [
        {
          "internalType": "address",
          "name": "spender",
          "type": "address"
        },
        {
          "internalType": "uint256",
          "name": "tokens",
          "type": "uint256"
        }
      ],
      "name": "approve",
      "outputs": [
        {
          "internalType": "bool",
          "name": "success",
          "type": "bool"
        }
      ],
      "stateMutability": "nonpayable",
      "type": "function"
    },
    {
      "inputs": [
        {
          "internalType": "address",
          "name": "spender",
          "type": "address"
        },
        {
          "internalType": "uint256",
          "name": "tokens",
          "type": "uint256"
        },
        {
          "internalType": "bytes",
          "name": "data",
          "type": "bytes"
        }
      ],
      "name": "approveAndCall",
      "outputs": [
        {
          "internalType": "bool",
          "name": "success",
          "type": "bool"
        }
      ],
      "stateMutability": "nonpayable",
      "type": "function"
    },
    {
      "inputs": [
        {
          "internalType": "address",
          "name": "tokenOwner",
          "type": "address"
        }
      ],
      "name": "balanceOf",
      "outputs": [
        {
          "internalType": "uint256",
          "name": "balance",
          "type": "uint256"
        }
      ],
      "stateMutability": "view",
      "type": "function",
      "constant": true
    },
    {
      "inputs": [],
      "name": "decimals",
      "outputs": [
        {
          "internalType": "uint8",
          "name": "",
          "type": "uint8"
        }
      ],
      "stateMutability": "view",
      "type": "function",
      "constant": true
    },
    {
      "inputs": [],
      "name": "name",
      "outputs": [
        {
          "internalType": "string",
          "name": "",
          "type": "string"
        }
      ],
      "stateMutability": "view",
      "type": "function",
      "constant": true
    },
    {
      "inputs": [],
      "name": "newOwner",
      "outputs": [
        {
          "internalType": "address",
          "name": "",
          "type": "address"
        }
      ],
      "stateMutability": "view",
      "type": "function",
      "constant": true
    },
    {
      "inputs": [],
      "name": "owner",
      "outputs": [
        {
          "internalType": "address",
          "name": "",
          "type": "address"
        }
      ],
      "stateMutability": "view",
      "type": "function",
      "constant": true
    },
    {
      "inputs": [],
      "name": "swapFee",
      "outputs": [
        {
          "internalType": "uint256",
          "name": "",
          "type": "uint256"
        }
      ],
      "stateMutability": "view",
      "type": "function",
      "constant": true
    },
    {
      "inputs": [],
      "name": "symbol",
      "outputs": [
        {
          "internalType": "string",
          "name": "",
          "type": "string"
        }
      ],
      "stateMutability": "view",
      "type": "function",
      "constant": true
    },
    {
      "inputs": [
        {
          "internalType": "uint256",
          "name": "",
          "type": "uint256"
        }
      ],
      "name": "tokenIndex",
      "outputs": [
        {
          "internalType": "string",
          "name": "",
          "type": "string"
        }
      ],
      "stateMutability": "view",
      "type": "function",
      "constant": true
    },
    {
      "inputs": [
        {
          "internalType": "string",
          "name": "",
          "type": "string"
        }
      ],
      "name": "tokenStruct",
      "outputs": [
        {
          "internalType": "contract Token",
          "name": "tokenAddress",
          "type": "address"
        },
        {
          "internalType": "uint256",
          "name": "index",
          "type": "uint256"
        }
      ],
      "stateMutability": "view",
      "type": "function",
      "constant": true
    },
    {
      "inputs": [],
      "name": "totalSupply",
      "outputs": [
        {
          "internalType": "uint256",
          "name": "a",
          "type": "uint256"
        }
      ],
      "stateMutability": "view",
      "type": "function",
      "constant": true
    },
    {
      "inputs": [
        {
          "internalType": "address",
          "name": "from",
          "type": "address"
        },
        {
          "internalType": "address",
          "name": "to",
          "type": "address"
        },
        {
          "internalType": "uint256",
          "name": "tokens",
          "type": "uint256"
        }
      ],
      "name": "transferFrom",
      "outputs": [
        {
          "internalType": "bool",
          "name": "success",
          "type": "bool"
        }
      ],
      "stateMutability": "nonpayable",
      "type": "function"
    },
    {
      "inputs": [
        {
          "internalType": "address",
          "name": "_newOwner",
          "type": "address"
        }
      ],
      "name": "transferOwnership",
      "outputs": [],
      "stateMutability": "nonpayable",
      "type": "function"
    },
    {
      "inputs": [
        {
          "internalType": "address",
          "name": "token_addr",
          "type": "address"
        }
      ],
      "name": "addToken",
      "outputs": [],
      "stateMutability": "nonpayable",
      "type": "function"
    },
    {
      "inputs": [
        {
          "internalType": "string",
          "name": "token_name",
          "type": "string"
        }
      ],
      "name": "removeToken",
      "outputs": [],
      "stateMutability": "nonpayable",
      "type": "function"
    },
    {
      "inputs": [
        {
          "internalType": "string",
          "name": "token_name",
          "type": "string"
        }
      ],
      "name": "isToken",
      "outputs": [
        {
          "internalType": "bool",
          "name": "",
          "type": "bool"
        }
      ],
      "stateMutability": "view",
      "type": "function",
      "constant": true
    },
    {
      "inputs": [
        {
          "internalType": "address",
          "name": "sender",
          "type": "address"
        },
        {
          "internalType": "address",
          "name": "received",
          "type": "address"
        },
        {
          "internalType": "string",
          "name": "token_name",
          "type": "string"
        },
        {
          "internalType": "uint256",
          "name": "vcoin",
          "type": "uint256"
        }
      ],
      "name": "transfer",
      "outputs": [],
      "stateMutability": "nonpayable",
      "type": "function"
    },
    {
      "inputs": [
        {
          "internalType": "address",
          "name": "to",
          "type": "address"
        },
        {
          "internalType": "uint256",
          "name": "tokens",
          "type": "uint256"
        }
      ],
      "name": "transfer",
      "outputs": [
        {
          "internalType": "bool",
          "name": "success",
          "type": "bool"
        }
      ],
      "stateMutability": "nonpayable",
      "type": "function"
    },
    {
      "inputs": [],
      "name": "deleteAllToken",
      "outputs": [],
      "stateMutability": "nonpayable",
      "type": "function"
    }
  ],
  "bytecode": "0x60806040526207a1206008553480156200001857600080fd5b50336000806101000a81548173ffffffffffffffffffffffffffffffffffffffff021916908373ffffffffffffffffffffffffffffffffffffffff1602179055506006600460006101000a81548160ff021916908360ff160217905550600460009054906101000a900460ff1660ff16600a0a620f424002600581905550600554600660008060009054906101000a900473ffffffffffffffffffffffffffffffffffffffff1673ffffffffffffffffffffffffffffffffffffffff1673ffffffffffffffffffffffffffffffffffffffff1681526020019081526020016000208190555060008054906101000a900473ffffffffffffffffffffffffffffffffffffffff1673ffffffffffffffffffffffffffffffffffffffff16600073ffffffffffffffffffffffffffffffffffffffff167fddf252ad1be2c89b69c2b068fc378daa952ba7f163c4a11628f55a4df523b3ef6005546040516200017f9190620002a2565b60405180910390a36040518060400160405280600581526020017f56434f494e00000000000000000000000000000000000000000000000000000081525060029080519060200190620001d4929190620001db565b50620002c9565b828054600181600116156101000203166002900490600052602060002090601f0160209004810192826200021357600085556200025f565b82601f106200022e57805160ff19168380011785556200025f565b828001600101855582156200025f579182015b828111156200025e57825182559160200191906001019062000241565b5b5090506200026e919062000272565b5090565b5b808211156200028d57600081600090555060010162000273565b5090565b6200029c81620002bf565b82525050565b6000602082019050620002b9600083018462000291565b92915050565b6000819050919050565b6122fc80620002d96000396000f3fe608060405234801561001057600080fd5b506004361061014d5760003560e01c806354cf2aeb116100c3578063ac44c64b1161007c578063ac44c64b146103b7578063cae9ca51146103c1578063d48bfca7146103f1578063d4ee1d901461040d578063dd62ed3e1461042b578063f2fde38b1461045b5761014d565b806354cf2aeb146102f357806370a082311461031157806379ba5097146103415780638da5cb5b1461034b57806395d89b4114610369578063a9059cbb146103875761014d565b806323b872dd1161011557806323b872dd1461020a5780632e0274a21461023a578063313ce567146102565780633d4286fb146102745780633eaaf86b146102a457806344b69b92146102c25761014d565b80630583e9f81461015257806306fdde0314610182578063095ea7b3146101a057806318160ddd146101d05780631f455922146101ee575b600080fd5b61016c60048036038101906101679190611d5b565b610477565b6040516101799190612048565b60405180910390f35b61018a610533565b6040516101979190612048565b60405180910390f35b6101ba60048036038101906101b59190611c36565b6105d1565b6040516101c79190612004565b60405180910390f35b6101d86106c3565b6040516101e5919061206a565b60405180910390f35b61020860048036038101906102039190611cd9565b61070e565b005b610224600480360381019061021f9190611be7565b610870565b6040516102319190612004565b60405180910390f35b610254600480360381019061024f9190611b6c565b610b1b565b005b61025e610c7f565b60405161026b9190612085565b60405180910390f35b61028e60048036038101906102899190611cd9565b610c92565b60405161029b9190612004565b60405180910390f35b6102ac610d08565b6040516102b9919061206a565b60405180910390f35b6102dc60048036038101906102d79190611cd9565b610d0e565b6040516102ea92919061201f565b60405180910390f35b6102fb610d68565b604051610308919061206a565b60405180910390f35b61032b60048036038101906103269190611b07565b610d6e565b604051610338919061206a565b60405180910390f35b610349610db7565b005b610353610f53565b6040516103609190611f66565b60405180910390f35b610371610f77565b60405161037e9190612048565b60405180910390f35b6103a1600480360381019061039c9190611c36565b611015565b6040516103ae9190612004565b60405180910390f35b6103bf6111b0565b005b6103db60048036038101906103d69190611c72565b6111c0565b6040516103e89190612004565b60405180910390f35b61040b60048036038101906104069190611b07565b611324565b005b6104156116ca565b6040516104229190611f66565b60405180910390f35b61044560048036038101906104409190611b30565b6116f0565b604051610452919061206a565b60405180910390f35b61047560048036038101906104709190611b07565b611777565b005b600a818154811061048757600080fd5b906000526020600020016000915090508054600181600116156101000203166002900480601f01602080910402602001604051908101604052809291908181526020018280546001816001161561010002031660029004801561052b5780601f106105005761010080835404028352916020019161052b565b820191906000526020600020905b81548152906001019060200180831161050e57829003601f168201915b505050505081565b60038054600181600116156101000203166002900480601f0160208091040260200160405190810160405280929190818152602001828054600181600116156101000203166002900480156105c95780601f1061059e576101008083540402835291602001916105c9565b820191906000526020600020905b8154815290600101906020018083116105ac57829003601f168201915b505050505081565b600081600760003373ffffffffffffffffffffffffffffffffffffffff1673ffffffffffffffffffffffffffffffffffffffff16815260200190815260200160002060008573ffffffffffffffffffffffffffffffffffffffff1673ffffffffffffffffffffffffffffffffffffffff168152602001908152602001600020819055508273ffffffffffffffffffffffffffffffffffffffff163373ffffffffffffffffffffffffffffffffffffffff167f8c5be1e5ebec7d5bd14f71427d1e84f3dd0314c0f7b2291e5b200ac8c7c3b925846040516106b1919061206a565b60405180910390a36001905092915050565b6000600660008073ffffffffffffffffffffffffffffffffffffffff1673ffffffffffffffffffffffffffffffffffffffff1681526020019081526020016000205460055403905090565b60006009826040516107209190611f4f565b90815260200160405180910390206001015490506060600a6001600a80549050038154811061074b57fe5b906000526020600020018054600181600116156101000203166002900480601f0160208091040260200160405190810160405280929190818152602001828054600181600116156101000203166002900480156107e95780601f106107be576101008083540402835291602001916107e9565b820191906000526020600020905b8154815290600101906020018083116107cc57829003601f168201915b5050505050905080600a83815481106107fe57fe5b90600052602060002001908051906020019061081b929190611894565b508160098260405161082d9190611f4f565b908152602001604051809103902060010181905550600a80548061084d57fe5b6001900381819060005260206000200160006108699190611922565b9055505050565b60006108c482600660008773ffffffffffffffffffffffffffffffffffffffff1673ffffffffffffffffffffffffffffffffffffffff1681526020019081526020016000205461181390919063ffffffff16565b600660008673ffffffffffffffffffffffffffffffffffffffff1673ffffffffffffffffffffffffffffffffffffffff1681526020019081526020016000208190555061099682600760008773ffffffffffffffffffffffffffffffffffffffff1673ffffffffffffffffffffffffffffffffffffffff16815260200190815260200160002060003373ffffffffffffffffffffffffffffffffffffffff1673ffffffffffffffffffffffffffffffffffffffff1681526020019081526020016000205461181390919063ffffffff16565b600760008673ffffffffffffffffffffffffffffffffffffffff1673ffffffffffffffffffffffffffffffffffffffff16815260200190815260200160002060003373ffffffffffffffffffffffffffffffffffffffff1673ffffffffffffffffffffffffffffffffffffffff16815260200190815260200160002081905550610a6882600660008673ffffffffffffffffffffffffffffffffffffffff1673ffffffffffffffffffffffffffffffffffffffff1681526020019081526020016000205461182d90919063ffffffff16565b600660008573ffffffffffffffffffffffffffffffffffffffff1673ffffffffffffffffffffffffffffffffffffffff168152602001908152602001600020819055508273ffffffffffffffffffffffffffffffffffffffff168473ffffffffffffffffffffffffffffffffffffffff167fddf252ad1be2c89b69c2b068fc378daa952ba7f163c4a11628f55a4df523b3ef84604051610b08919061206a565b60405180910390a3600190509392505050565b6000600983604051610b2d9190611f4f565b908152602001604051809103902060000160009054906101000a900473ffffffffffffffffffffffffffffffffffffffff1690506000610c066064610bf88473ffffffffffffffffffffffffffffffffffffffff16637cb2f95d6040518163ffffffff1660e01b815260040160206040518083038186803b158015610bb157600080fd5b505afa158015610bc5573d6000803e3d6000fd5b505050506040513d601f19601f82011682018060405250810190610be99190611d84565b8661184790919063ffffffff16565b61187490919063ffffffff16565b90508173ffffffffffffffffffffffffffffffffffffffff16634ec109f48787846040518463ffffffff1660e01b8152600401610c4593929190611fcd565b600060405180830381600087803b158015610c5f57600080fd5b505af1158015610c73573d6000803e3d6000fd5b50505050505050505050565b600460009054906101000a900460ff1681565b600080600a805490501415610caa5760009050610d03565b600a600983604051610cbc9190611f4f565b90815260200160405180910390206001015481548110610cd857fe5b90600052602060002001604051610cef9190611f38565b604051809103902082805190602001201490505b919050565b60055481565b6009818051602081018201805184825260208301602085012081835280955050505050506000915090508060000160009054906101000a900473ffffffffffffffffffffffffffffffffffffffff16908060010154905082565b60085481565b6000600660008373ffffffffffffffffffffffffffffffffffffffff1673ffffffffffffffffffffffffffffffffffffffff168152602001908152602001600020549050919050565b600160009054906101000a900473ffffffffffffffffffffffffffffffffffffffff1673ffffffffffffffffffffffffffffffffffffffff163373ffffffffffffffffffffffffffffffffffffffff1614610e1157600080fd5b600160009054906101000a900473ffffffffffffffffffffffffffffffffffffffff1673ffffffffffffffffffffffffffffffffffffffff1660008054906101000a900473ffffffffffffffffffffffffffffffffffffffff1673ffffffffffffffffffffffffffffffffffffffff167f8be0079c531659141344cd1fd0a4f28419497f9722a3daafe3b4186f6b6457e060405160405180910390a3600160009054906101000a900473ffffffffffffffffffffffffffffffffffffffff166000806101000a81548173ffffffffffffffffffffffffffffffffffffffff021916908373ffffffffffffffffffffffffffffffffffffffff1602179055506000600160006101000a81548173ffffffffffffffffffffffffffffffffffffffff021916908373ffffffffffffffffffffffffffffffffffffffff160217905550565b60008054906101000a900473ffffffffffffffffffffffffffffffffffffffff1681565b60028054600181600116156101000203166002900480601f01602080910402602001604051908101604052809291908181526020018280546001816001161561010002031660029004801561100d5780601f10610fe25761010080835404028352916020019161100d565b820191906000526020600020905b815481529060010190602001808311610ff057829003601f168201915b505050505081565b600061106982600660003373ffffffffffffffffffffffffffffffffffffffff1673ffffffffffffffffffffffffffffffffffffffff1681526020019081526020016000205461181390919063ffffffff16565b600660003373ffffffffffffffffffffffffffffffffffffffff1673ffffffffffffffffffffffffffffffffffffffff168152602001908152602001600020819055506110fe82600660008673ffffffffffffffffffffffffffffffffffffffff1673ffffffffffffffffffffffffffffffffffffffff1681526020019081526020016000205461182d90919063ffffffff16565b600660008573ffffffffffffffffffffffffffffffffffffffff1673ffffffffffffffffffffffffffffffffffffffff168152602001908152602001600020819055508273ffffffffffffffffffffffffffffffffffffffff163373ffffffffffffffffffffffffffffffffffffffff167fddf252ad1be2c89b69c2b068fc378daa952ba7f163c4a11628f55a4df523b3ef8460405161119e919061206a565b60405180910390a36001905092915050565b600a60006111be919061196a565b565b600082600760003373ffffffffffffffffffffffffffffffffffffffff1673ffffffffffffffffffffffffffffffffffffffff16815260200190815260200160002060008673ffffffffffffffffffffffffffffffffffffffff1673ffffffffffffffffffffffffffffffffffffffff168152602001908152602001600020819055508373ffffffffffffffffffffffffffffffffffffffff163373ffffffffffffffffffffffffffffffffffffffff167f8c5be1e5ebec7d5bd14f71427d1e84f3dd0314c0f7b2291e5b200ac8c7c3b925856040516112a0919061206a565b60405180910390a38373ffffffffffffffffffffffffffffffffffffffff16638f4ffcb1338530866040518563ffffffff1660e01b81526004016112e79493929190611f81565b600060405180830381600087803b15801561130157600080fd5b505af1158015611315573d6000803e3d6000fd5b50505050600190509392505050565b60008054906101000a900473ffffffffffffffffffffffffffffffffffffffff1673ffffffffffffffffffffffffffffffffffffffff163373ffffffffffffffffffffffffffffffffffffffff161461137c57600080fd5b60008190508073ffffffffffffffffffffffffffffffffffffffff166359f121a86040518163ffffffff1660e01b8152600401600060405180830381600087803b1580156113c957600080fd5b505af11580156113dd573d6000803e3d6000fd5b5050505061146c8173ffffffffffffffffffffffffffffffffffffffff166395d89b416040518163ffffffff1660e01b815260040160006040518083038186803b15801561142a57600080fd5b505afa15801561143e573d6000803e3d6000fd5b505050506040513d6000823e3d601f19601f820116820180604052508101906114679190611d1a565b610c92565b1561147657600080fd5b8060098273ffffffffffffffffffffffffffffffffffffffff166395d89b416040518163ffffffff1660e01b815260040160006040518083038186803b1580156114bf57600080fd5b505afa1580156114d3573d6000803e3d6000fd5b505050506040513d6000823e3d601f19601f820116820180604052508101906114fc9190611d1a565b6040516115099190611f4f565b908152602001604051809103902060000160006101000a81548173ffffffffffffffffffffffffffffffffffffffff021916908373ffffffffffffffffffffffffffffffffffffffff160217905550600a8173ffffffffffffffffffffffffffffffffffffffff166395d89b416040518163ffffffff1660e01b815260040160006040518083038186803b1580156115a057600080fd5b505afa1580156115b4573d6000803e3d6000fd5b505050506040513d6000823e3d601f19601f820116820180604052508101906115dd9190611d1a565b908060018154018082558091505060019003906000526020600020016000909190919091509080519060200190611615929190611894565b506001600a805490500360098273ffffffffffffffffffffffffffffffffffffffff166395d89b416040518163ffffffff1660e01b815260040160006040518083038186803b15801561166757600080fd5b505afa15801561167b573d6000803e3d6000fd5b505050506040513d6000823e3d601f19601f820116820180604052508101906116a49190611d1a565b6040516116b19190611f4f565b9081526020016040518091039020600101819055505050565b600160009054906101000a900473ffffffffffffffffffffffffffffffffffffffff1681565b6000600760008473ffffffffffffffffffffffffffffffffffffffff1673ffffffffffffffffffffffffffffffffffffffff16815260200190815260200160002060008373ffffffffffffffffffffffffffffffffffffffff1673ffffffffffffffffffffffffffffffffffffffff16815260200190815260200160002054905092915050565b60008054906101000a900473ffffffffffffffffffffffffffffffffffffffff1673ffffffffffffffffffffffffffffffffffffffff163373ffffffffffffffffffffffffffffffffffffffff16146117cf57600080fd5b80600160006101000a81548173ffffffffffffffffffffffffffffffffffffffff021916908373ffffffffffffffffffffffffffffffffffffffff16021790555050565b60008282111561182257600080fd5b818303905092915050565b600081830190508281101561184157600080fd5b92915050565b60008183029050600083148061186557508183828161186257fe5b04145b61186e57600080fd5b92915050565b600080821161188257600080fd5b81838161188b57fe5b04905092915050565b828054600181600116156101000203166002900490600052602060002090601f0160209004810192826118ca5760008555611911565b82601f106118e357805160ff1916838001178555611911565b82800160010185558215611911579182015b828111156119105782518255916020019190600101906118f5565b5b50905061191e919061198b565b5090565b50805460018160011615610100020316600290046000825580601f106119485750611967565b601f016020900490600052602060002090810190611966919061198b565b5b50565b508054600082559060005260206000209081019061198891906119a8565b50565b5b808211156119a457600081600090555060010161198c565b5090565b5b808211156119c857600081816119bf9190611922565b506001016119a9565b5090565b6000813590506119db81612298565b92915050565b600082601f8301126119f257600080fd5b8135611a05611a00826120d1565b6120a0565b91508082526020830160208301858383011115611a2157600080fd5b611a2c838284612243565b50505092915050565b600082601f830112611a4657600080fd5b8135611a59611a5482612101565b6120a0565b91508082526020830160208301858383011115611a7557600080fd5b611a80838284612243565b50505092915050565b600082601f830112611a9a57600080fd5b8151611aad611aa882612101565b6120a0565b91508082526020830160208301858383011115611ac957600080fd5b611ad4838284612252565b50505092915050565b600081359050611aec816122af565b92915050565b600081519050611b01816122af565b92915050565b600060208284031215611b1957600080fd5b6000611b27848285016119cc565b91505092915050565b60008060408385031215611b4357600080fd5b6000611b51858286016119cc565b9250506020611b62858286016119cc565b9150509250929050565b60008060008060808587031215611b8257600080fd5b6000611b90878288016119cc565b9450506020611ba1878288016119cc565b935050604085013567ffffffffffffffff811115611bbe57600080fd5b611bca87828801611a35565b9250506060611bdb87828801611add565b91505092959194509250565b600080600060608486031215611bfc57600080fd5b6000611c0a868287016119cc565b9350506020611c1b868287016119cc565b9250506040611c2c86828701611add565b9150509250925092565b60008060408385031215611c4957600080fd5b6000611c57858286016119cc565b9250506020611c6885828601611add565b9150509250929050565b600080600060608486031215611c8757600080fd5b6000611c95868287016119cc565b9350506020611ca686828701611add565b925050604084013567ffffffffffffffff811115611cc357600080fd5b611ccf868287016119e1565b9150509250925092565b600060208284031215611ceb57600080fd5b600082013567ffffffffffffffff811115611d0557600080fd5b611d1184828501611a35565b91505092915050565b600060208284031215611d2c57600080fd5b600082015167ffffffffffffffff811115611d4657600080fd5b611d5284828501611a89565b91505092915050565b600060208284031215611d6d57600080fd5b6000611d7b84828501611add565b91505092915050565b600060208284031215611d9657600080fd5b6000611da484828501611af2565b91505092915050565b611db6816121e9565b82525050565b611dc581612194565b82525050565b611dd4816121a6565b82525050565b6000611de582612146565b611def818561215c565b9350611dff818560208601612252565b611e0881612287565b840191505092915050565b600081546001811660008114611e305760018114611e5557611e99565b607f6002830416611e41818761216d565b955060ff1983168652808601935050611e99565b60028204611e63818761216d565b9550611e6e85612131565b60005b82811015611e9057815481890152600182019150602081019050611e71565b82880195505050505b505092915050565b611eaa816121fb565b82525050565b6000611ebb82612151565b611ec58185612178565b9350611ed5818560208601612252565b611ede81612287565b840191505092915050565b6000611ef482612151565b611efe8185612189565b9350611f0e818560208601612252565b80840191505092915050565b611f23816121d2565b82525050565b611f32816121dc565b82525050565b6000611f448284611e13565b915081905092915050565b6000611f5b8284611ee9565b915081905092915050565b6000602082019050611f7b6000830184611dbc565b92915050565b6000608082019050611f966000830187611dad565b611fa36020830186611f1a565b611fb06040830185611dbc565b8181036060830152611fc28184611dda565b905095945050505050565b6000606082019050611fe26000830186611dbc565b611fef6020830185611dbc565b611ffc6040830184611f1a565b949350505050565b60006020820190506120196000830184611dcb565b92915050565b60006040820190506120346000830185611ea1565b6120416020830184611f1a565b9392505050565b600060208201905081810360008301526120628184611eb0565b905092915050565b600060208201905061207f6000830184611f1a565b92915050565b600060208201905061209a6000830184611f29565b92915050565b6000604051905081810181811067ffffffffffffffff821117156120c7576120c6612285565b5b8060405250919050565b600067ffffffffffffffff8211156120ec576120eb612285565b5b601f19601f8301169050602081019050919050565b600067ffffffffffffffff82111561211c5761211b612285565b5b601f19601f8301169050602081019050919050565b60008190508160005260206000209050919050565b600081519050919050565b600081519050919050565b600082825260208201905092915050565b600081905092915050565b600082825260208201905092915050565b600081905092915050565b600061219f826121b2565b9050919050565b60008115159050919050565b600073ffffffffffffffffffffffffffffffffffffffff82169050919050565b6000819050919050565b600060ff82169050919050565b60006121f48261221f565b9050919050565b60006122068261220d565b9050919050565b6000612218826121b2565b9050919050565b600061222a82612231565b9050919050565b600061223c826121b2565b9050919050565b82818337600083830152505050565b60005b83811015612270578082015181840152602081019050612255565b8381111561227f576000848401525b50505050565bfe5b6000601f19601f8301169050919050565b6122a181612194565b81146122ac57600080fd5b50565b6122b8816121d2565b81146122c357600080fd5b5056fea26469706673582212206e2a9939fdbc479e69b769ea9d47e5269036d5a367f86f8c624e1ea96f5aed3064736f6c63430007050033",
  "immutableReferences": {},
  "source": "// SPDX-License-Identifier: GPL-3.0\npragma solidity >=0.5.0 <0.8.0;\npragma experimental ABIEncoderV2;\n\nimport './Lib.sol';\n\n\ncontract VCoin is MainToken {    \n    using SafeMath for uint;\n    mapping(string => TokenStruct) public tokenStruct;\n    string[] public tokenIndex;\n    \n    struct TokenStruct {\n        Token tokenAddress;\n        uint index;\n    }\n    \n    constructor() {\n        symbol = \"VCOIN\";\n    }\n    \n    function addToken(address token_addr) external onlyOwner{\n        Token added = Token(token_addr);\n        added.setCreator();\n        require(!isToken(added.symbol()));\n        tokenStruct[added.symbol()].tokenAddress = added;\n        tokenIndex.push(added.symbol());\n        tokenStruct[added.symbol()].index = tokenIndex.length-1;\n    }\n    \n    function removeToken(string memory token_name) external {\n        uint rowToDelete = tokenStruct[token_name].index;\n        string memory keyToMove = tokenIndex[tokenIndex.length-1];\n        tokenIndex[rowToDelete] = keyToMove;\n        tokenStruct[keyToMove].index = rowToDelete; \n        tokenIndex.pop();\n    }\n    \n    function isToken(string memory token_name) public view returns (bool) {\n        if(tokenIndex.length == 0) return false;\n        return keccak256(bytes(token_name)) == keccak256(bytes(tokenIndex[tokenStruct[token_name].index]));\n    }\n    \n    function transfer(address sender, address received, string memory token_name, uint256 vcoin) public override{\n        Token token = tokenStruct[token_name].tokenAddress;\n        uint256 sendAmount = vcoin.mul(token.exchangedRatePercent()).div(100);\n        token.receiveToken(sender, received, sendAmount);\n    }\n    \n    \n    function deleteAllToken() public {\n        delete tokenIndex;\n    }\n}",
  "sourcePath": "/home/truong5x/Documents/lab/project/contract/src/Main.sol",
  "compiler": {
    "name": "solc",
    "version": "0.7.5+commit.eb77ed08.Emscripten.clang"
  },
  "schemaVersion": "3.3.2",
  "updatedAt": "2020-12-04T06:18:56.509Z",
  "networkType": "ethereum",
  "devdoc": {
    "kind": "dev",
    "methods": {},
    "version": 1
  },
  "userdoc": {
    "kind": "user",
    "methods": {},
    "version": 1
  }
}